{
  "_format": "hh-sol-artifact-1",
  "contractName": "Token",
  "sourceName": "contracts/Token.sol",
  "abi": [
    {
      "inputs": [
        {
          "internalType": "string",
          "name": "name",
          "type": "string"
        },
        {
          "internalType": "string",
          "name": "symbol",
          "type": "string"
        },
        {
          "internalType": "string",
          "name": "baseTokenURI",
          "type": "string"
        }
      ],
      "stateMutability": "nonpayable",
      "type": "constructor"
    },
    {
      "anonymous": false,
      "inputs": [
        {
          "indexed": true,
          "internalType": "address",
          "name": "owner",
          "type": "address"
        },
        {
          "indexed": true,
          "internalType": "address",
          "name": "approved",
          "type": "address"
        },
        {
          "indexed": true,
          "internalType": "uint256",
          "name": "tokenId",
          "type": "uint256"
        }
      ],
      "name": "Approval",
      "type": "event"
    },
    {
      "anonymous": false,
      "inputs": [
        {
          "indexed": true,
          "internalType": "address",
          "name": "owner",
          "type": "address"
        },
        {
          "indexed": true,
          "internalType": "address",
          "name": "operator",
          "type": "address"
        },
        {
          "indexed": false,
          "internalType": "bool",
          "name": "approved",
          "type": "bool"
        }
      ],
      "name": "ApprovalForAll",
      "type": "event"
    },
    {
      "anonymous": false,
      "inputs": [
        {
          "indexed": false,
          "internalType": "address",
          "name": "account",
          "type": "address"
        }
      ],
      "name": "Paused",
      "type": "event"
    },
    {
      "anonymous": false,
      "inputs": [
        {
          "indexed": true,
          "internalType": "bytes32",
          "name": "role",
          "type": "bytes32"
        },
        {
          "indexed": true,
          "internalType": "bytes32",
          "name": "previousAdminRole",
          "type": "bytes32"
        },
        {
          "indexed": true,
          "internalType": "bytes32",
          "name": "newAdminRole",
          "type": "bytes32"
        }
      ],
      "name": "RoleAdminChanged",
      "type": "event"
    },
    {
      "anonymous": false,
      "inputs": [
        {
          "indexed": true,
          "internalType": "bytes32",
          "name": "role",
          "type": "bytes32"
        },
        {
          "indexed": true,
          "internalType": "address",
          "name": "account",
          "type": "address"
        },
        {
          "indexed": true,
          "internalType": "address",
          "name": "sender",
          "type": "address"
        }
      ],
      "name": "RoleGranted",
      "type": "event"
    },
    {
      "anonymous": false,
      "inputs": [
        {
          "indexed": true,
          "internalType": "bytes32",
          "name": "role",
          "type": "bytes32"
        },
        {
          "indexed": true,
          "internalType": "address",
          "name": "account",
          "type": "address"
        },
        {
          "indexed": true,
          "internalType": "address",
          "name": "sender",
          "type": "address"
        }
      ],
      "name": "RoleRevoked",
      "type": "event"
    },
    {
      "anonymous": false,
      "inputs": [
        {
          "indexed": true,
          "internalType": "address",
          "name": "from",
          "type": "address"
        },
        {
          "indexed": true,
          "internalType": "address",
          "name": "to",
          "type": "address"
        },
        {
          "indexed": true,
          "internalType": "uint256",
          "name": "tokenId",
          "type": "uint256"
        }
      ],
      "name": "Transfer",
      "type": "event"
    },
    {
      "anonymous": false,
      "inputs": [
        {
          "indexed": false,
          "internalType": "address",
          "name": "account",
          "type": "address"
        }
      ],
      "name": "Unpaused",
      "type": "event"
    },
    {
      "inputs": [],
      "name": "DEFAULT_ADMIN_ROLE",
      "outputs": [
        {
          "internalType": "bytes32",
          "name": "",
          "type": "bytes32"
        }
      ],
      "stateMutability": "view",
      "type": "function"
    },
    {
      "inputs": [],
      "name": "PAUSER_ROLE",
      "outputs": [
        {
          "internalType": "bytes32",
          "name": "",
          "type": "bytes32"
        }
      ],
      "stateMutability": "view",
      "type": "function"
    },
    {
      "inputs": [
        {
          "internalType": "address",
          "name": "to",
          "type": "address"
        },
        {
          "internalType": "uint256",
          "name": "tokenId",
          "type": "uint256"
        }
      ],
      "name": "approve",
      "outputs": [],
      "stateMutability": "nonpayable",
      "type": "function"
    },
    {
      "inputs": [
        {
          "internalType": "address",
          "name": "owner",
          "type": "address"
        }
      ],
      "name": "balanceOf",
      "outputs": [
        {
          "internalType": "uint256",
          "name": "",
          "type": "uint256"
        }
      ],
      "stateMutability": "view",
      "type": "function"
    },
    {
      "inputs": [
        {
          "internalType": "uint256",
          "name": "tokenId",
          "type": "uint256"
        }
      ],
      "name": "burn",
      "outputs": [],
      "stateMutability": "nonpayable",
      "type": "function"
    },
    {
      "inputs": [
        {
          "internalType": "uint256",
          "name": "tokenId",
          "type": "uint256"
        }
      ],
      "name": "getApproved",
      "outputs": [
        {
          "internalType": "address",
          "name": "",
          "type": "address"
        }
      ],
      "stateMutability": "view",
      "type": "function"
    },
    {
      "inputs": [
        {
          "internalType": "bytes32",
          "name": "role",
          "type": "bytes32"
        }
      ],
      "name": "getRoleAdmin",
      "outputs": [
        {
          "internalType": "bytes32",
          "name": "",
          "type": "bytes32"
        }
      ],
      "stateMutability": "view",
      "type": "function"
    },
    {
      "inputs": [
        {
          "internalType": "bytes32",
          "name": "role",
          "type": "bytes32"
        },
        {
          "internalType": "uint256",
          "name": "index",
          "type": "uint256"
        }
      ],
      "name": "getRoleMember",
      "outputs": [
        {
          "internalType": "address",
          "name": "",
          "type": "address"
        }
      ],
      "stateMutability": "view",
      "type": "function"
    },
    {
      "inputs": [
        {
          "internalType": "bytes32",
          "name": "role",
          "type": "bytes32"
        }
      ],
      "name": "getRoleMemberCount",
      "outputs": [
        {
          "internalType": "uint256",
          "name": "",
          "type": "uint256"
        }
      ],
      "stateMutability": "view",
      "type": "function"
    },
    {
      "inputs": [
        {
          "internalType": "bytes32",
          "name": "role",
          "type": "bytes32"
        },
        {
          "internalType": "address",
          "name": "account",
          "type": "address"
        }
      ],
      "name": "grantRole",
      "outputs": [],
      "stateMutability": "nonpayable",
      "type": "function"
    },
    {
      "inputs": [
        {
          "internalType": "bytes32",
          "name": "role",
          "type": "bytes32"
        },
        {
          "internalType": "address",
          "name": "account",
          "type": "address"
        }
      ],
      "name": "hasRole",
      "outputs": [
        {
          "internalType": "bool",
          "name": "",
          "type": "bool"
        }
      ],
      "stateMutability": "view",
      "type": "function"
    },
    {
      "inputs": [
        {
          "internalType": "address",
          "name": "owner",
          "type": "address"
        },
        {
          "internalType": "address",
          "name": "operator",
          "type": "address"
        }
      ],
      "name": "isApprovedForAll",
      "outputs": [
        {
          "internalType": "bool",
          "name": "",
          "type": "bool"
        }
      ],
      "stateMutability": "view",
      "type": "function"
    },
    {
      "inputs": [],
      "name": "mint",
      "outputs": [
        {
          "internalType": "uint256",
          "name": "",
          "type": "uint256"
        }
      ],
      "stateMutability": "payable",
      "type": "function"
    },
    {
      "inputs": [],
      "name": "name",
      "outputs": [
        {
          "internalType": "string",
          "name": "",
          "type": "string"
        }
      ],
      "stateMutability": "view",
      "type": "function"
    },
    {
      "inputs": [
        {
          "internalType": "uint256",
          "name": "tokenId",
          "type": "uint256"
        }
      ],
      "name": "ownerOf",
      "outputs": [
        {
          "internalType": "address",
          "name": "",
          "type": "address"
        }
      ],
      "stateMutability": "view",
      "type": "function"
    },
    {
      "inputs": [],
      "name": "pause",
      "outputs": [],
      "stateMutability": "nonpayable",
      "type": "function"
    },
    {
      "inputs": [],
      "name": "paused",
      "outputs": [
        {
          "internalType": "bool",
          "name": "",
          "type": "bool"
        }
      ],
      "stateMutability": "view",
      "type": "function"
    },
    {
      "inputs": [
        {
          "internalType": "bytes32",
          "name": "role",
          "type": "bytes32"
        },
        {
          "internalType": "address",
          "name": "account",
          "type": "address"
        }
      ],
      "name": "renounceRole",
      "outputs": [],
      "stateMutability": "nonpayable",
      "type": "function"
    },
    {
      "inputs": [
        {
          "internalType": "bytes32",
          "name": "role",
          "type": "bytes32"
        },
        {
          "internalType": "address",
          "name": "account",
          "type": "address"
        }
      ],
      "name": "revokeRole",
      "outputs": [],
      "stateMutability": "nonpayable",
      "type": "function"
    },
    {
      "inputs": [
        {
          "internalType": "address",
          "name": "from",
          "type": "address"
        },
        {
          "internalType": "address",
          "name": "to",
          "type": "address"
        },
        {
          "internalType": "uint256",
          "name": "tokenId",
          "type": "uint256"
        }
      ],
      "name": "safeTransferFrom",
      "outputs": [],
      "stateMutability": "nonpayable",
      "type": "function"
    },
    {
      "inputs": [
        {
          "internalType": "address",
          "name": "from",
          "type": "address"
        },
        {
          "internalType": "address",
          "name": "to",
          "type": "address"
        },
        {
          "internalType": "uint256",
          "name": "tokenId",
          "type": "uint256"
        },
        {
          "internalType": "bytes",
          "name": "_data",
          "type": "bytes"
        }
      ],
      "name": "safeTransferFrom",
      "outputs": [],
      "stateMutability": "nonpayable",
      "type": "function"
    },
    {
      "inputs": [
        {
          "internalType": "address",
          "name": "operator",
          "type": "address"
        },
        {
          "internalType": "bool",
          "name": "approved",
          "type": "bool"
        }
      ],
      "name": "setApprovalForAll",
      "outputs": [],
      "stateMutability": "nonpayable",
      "type": "function"
    },
    {
      "inputs": [
        {
          "internalType": "bytes4",
          "name": "interfaceId",
          "type": "bytes4"
        }
      ],
      "name": "supportsInterface",
      "outputs": [
        {
          "internalType": "bool",
          "name": "",
          "type": "bool"
        }
      ],
      "stateMutability": "view",
      "type": "function"
    },
    {
      "inputs": [],
      "name": "symbol",
      "outputs": [
        {
          "internalType": "string",
          "name": "",
          "type": "string"
        }
      ],
      "stateMutability": "view",
      "type": "function"
    },
    {
      "inputs": [
        {
          "internalType": "uint256",
          "name": "index",
          "type": "uint256"
        }
      ],
      "name": "tokenByIndex",
      "outputs": [
        {
          "internalType": "uint256",
          "name": "",
          "type": "uint256"
        }
      ],
      "stateMutability": "view",
      "type": "function"
    },
    {
      "inputs": [
        {
          "internalType": "address",
          "name": "owner",
          "type": "address"
        },
        {
          "internalType": "uint256",
          "name": "index",
          "type": "uint256"
        }
      ],
      "name": "tokenOfOwnerByIndex",
      "outputs": [
        {
          "internalType": "uint256",
          "name": "",
          "type": "uint256"
        }
      ],
      "stateMutability": "view",
      "type": "function"
    },
    {
      "inputs": [
        {
          "internalType": "uint256",
          "name": "tokenId",
          "type": "uint256"
        }
      ],
      "name": "tokenURI",
      "outputs": [
        {
          "internalType": "string",
          "name": "",
          "type": "string"
        }
      ],
      "stateMutability": "view",
      "type": "function"
    },
    {
      "inputs": [],
      "name": "totalSupply",
      "outputs": [
        {
          "internalType": "uint256",
          "name": "",
          "type": "uint256"
        }
      ],
      "stateMutability": "view",
      "type": "function"
    },
    {
      "inputs": [
        {
          "internalType": "address",
          "name": "from",
          "type": "address"
        },
        {
          "internalType": "address",
          "name": "to",
          "type": "address"
        },
        {
          "internalType": "uint256",
          "name": "tokenId",
          "type": "uint256"
        }
      ],
      "name": "transferFrom",
      "outputs": [],
      "stateMutability": "nonpayable",
      "type": "function"
    },
    {
      "inputs": [],
      "name": "unpause",
      "outputs": [],
      "stateMutability": "nonpayable",
      "type": "function"
    },
    {
      "inputs": [],
      "name": "withdraw",
      "outputs": [],
      "stateMutability": "nonpayable",
      "type": "function"
    }
  ],
  "bytecode": "0x60806040523480156200001157600080fd5b506040516200507e3803806200507e8339818101604052810190620000379190620004c7565b8282816002908051906020019062000051929190620003a5565b5080600390805190602001906200006a929190620003a5565b5050506000600c60006101000a81548160ff02191690831515021790555080600e9080519060200190620000a0929190620003a5565b50620000c56000801b620000b96200010f60201b60201c565b6200011760201b60201c565b620001067f65d7a28e3265b37a6474929f336521b332c1681b933f6cb9f3376673440d862a620000fa6200010f60201b60201c565b6200011760201b60201c565b50505062000699565b600033905090565b6200012e82826200015f60201b620015e81760201c565b6200015a81600160008581526020019081526020016000206200017560201b620015f61790919060201c565b505050565b620001718282620001ad60201b60201c565b5050565b6000620001a5836000018373ffffffffffffffffffffffffffffffffffffffff1660001b6200029e60201b60201c565b905092915050565b620001bf82826200031860201b60201c565b6200029a57600160008084815260200190815260200160002060000160008373ffffffffffffffffffffffffffffffffffffffff1673ffffffffffffffffffffffffffffffffffffffff16815260200190815260200160002060006101000a81548160ff0219169083151502179055506200023f6200010f60201b60201c565b73ffffffffffffffffffffffffffffffffffffffff168173ffffffffffffffffffffffffffffffffffffffff16837f2f8788117e7eff1d82e926ec794901d17c78024a50270940304540a733656f0d60405160405180910390a45b5050565b6000620002b283836200038260201b60201c565b6200030d57826000018290806001815401808255809150506001900390600052602060002001600090919091909150558260000180549050836001016000848152602001908152602001600020819055506001905062000312565b600090505b92915050565b600080600084815260200190815260200160002060000160008373ffffffffffffffffffffffffffffffffffffffff1673ffffffffffffffffffffffffffffffffffffffff16815260200190815260200160002060009054906101000a900460ff16905092915050565b600080836001016000848152602001908152602001600020541415905092915050565b828054620003b39062000605565b90600052602060002090601f016020900481019282620003d7576000855562000423565b82601f10620003f257805160ff191683800117855562000423565b8280016001018555821562000423579182015b828111156200042257825182559160200191906001019062000405565b5b50905062000432919062000436565b5090565b5b808211156200045157600081600090555060010162000437565b5090565b60006200046c62000466846200059c565b62000568565b9050828152602081018484840111156200048557600080fd5b62000492848285620005cf565b509392505050565b600082601f830112620004ac57600080fd5b8151620004be84826020860162000455565b91505092915050565b600080600060608486031215620004dd57600080fd5b600084015167ffffffffffffffff811115620004f857600080fd5b62000506868287016200049a565b935050602084015167ffffffffffffffff8111156200052457600080fd5b62000532868287016200049a565b925050604084015167ffffffffffffffff8111156200055057600080fd5b6200055e868287016200049a565b9150509250925092565b6000604051905081810181811067ffffffffffffffff821117156200059257620005916200066a565b5b8060405250919050565b600067ffffffffffffffff821115620005ba57620005b96200066a565b5b601f19601f8301169050602081019050919050565b60005b83811015620005ef578082015181840152602081019050620005d2565b83811115620005ff576000848401525b50505050565b600060028204905060018216806200061e57607f821691505b602082108114156200063557620006346200063b565b5b50919050565b7f4e487b7100000000000000000000000000000000000000000000000000000000600052602260045260246000fd5b7f4e487b7100000000000000000000000000000000000000000000000000000000600052604160045260246000fd5b6149d580620006a96000396000f3fe6080604052600436106101d85760003560e01c80634f6ccce711610102578063a217fddf11610095578063ca15c87311610064578063ca15c873146106c1578063d547741f146106fe578063e63ab1e914610727578063e985e9c514610752576101d8565b8063a217fddf14610607578063a22cb46514610632578063b88d4fde1461065b578063c87b56dd14610684576101d8565b80638456cb59116100d15780638456cb591461054b5780639010d07c1461056257806391d148541461059f57806395d89b41146105dc576101d8565b80634f6ccce7146104695780635c975abb146104a65780636352211e146104d157806370a082311461050e576101d8565b8063248a9ca31161017a5780633ccfd60b116101495780633ccfd60b146103e95780633f4ba83a1461040057806342842e0e1461041757806342966c6814610440576101d8565b8063248a9ca31461031d5780632f2ff15d1461035a5780632f745c591461038357806336568abe146103c0576101d8565b8063095ea7b3116101b6578063095ea7b3146102825780631249c58b146102ab57806318160ddd146102c957806323b872dd146102f4576101d8565b806301ffc9a7146101dd57806306fdde031461021a578063081812fc14610245575b600080fd5b3480156101e957600080fd5b5061020460048036038101906101ff9190613432565b61078f565b6040516102119190614156565b60405180910390f35b34801561022657600080fd5b5061022f6107a1565b60405161023c919061418c565b60405180910390f35b34801561025157600080fd5b5061026c60048036038101906102679190613484565b610833565b60405161027991906140ef565b60405180910390f35b34801561028e57600080fd5b506102a960048036038101906102a49190613355565b6108b8565b005b6102b36109d0565b6040516102c0919061456e565b60405180910390f35b3480156102d557600080fd5b506102de610aec565b6040516102eb919061456e565b60405180910390f35b34801561030057600080fd5b5061031b6004803603810190610316919061324f565b610af9565b005b34801561032957600080fd5b50610344600480360381019061033f9190613391565b610b59565b6040516103519190614171565b60405180910390f35b34801561036657600080fd5b50610381600480360381019061037c91906133ba565b610b78565b005b34801561038f57600080fd5b506103aa60048036038101906103a59190613355565b610bac565b6040516103b7919061456e565b60405180910390f35b3480156103cc57600080fd5b506103e760048036038101906103e291906133ba565b610c51565b005b3480156103f557600080fd5b506103fe610c85565b005b34801561040c57600080fd5b50610415610d94565b005b34801561042357600080fd5b5061043e6004803603810190610439919061324f565b610e0e565b005b34801561044c57600080fd5b5061046760048036038101906104629190613484565b610e2e565b005b34801561047557600080fd5b50610490600480360381019061048b9190613484565b610e8a565b60405161049d919061456e565b60405180910390f35b3480156104b257600080fd5b506104bb610f21565b6040516104c89190614156565b60405180910390f35b3480156104dd57600080fd5b506104f860048036038101906104f39190613484565b610f38565b60405161050591906140ef565b60405180910390f35b34801561051a57600080fd5b50610535600480360381019061053091906131ea565b610fea565b604051610542919061456e565b60405180910390f35b34801561055757600080fd5b506105606110a2565b005b34801561056e57600080fd5b50610589600480360381019061058491906133f6565b61111c565b60405161059691906140ef565b60405180910390f35b3480156105ab57600080fd5b506105c660048036038101906105c191906133ba565b61114b565b6040516105d39190614156565b60405180910390f35b3480156105e857600080fd5b506105f16111b5565b6040516105fe919061418c565b60405180910390f35b34801561061357600080fd5b5061061c611247565b6040516106299190614171565b60405180910390f35b34801561063e57600080fd5b5061065960048036038101906106549190613319565b61124e565b005b34801561066757600080fd5b50610682600480360381019061067d919061329e565b6113cf565b005b34801561069057600080fd5b506106ab60048036038101906106a69190613484565b611431565b6040516106b8919061418c565b60405180910390f35b3480156106cd57600080fd5b506106e860048036038101906106e39190613391565b6114d8565b6040516106f5919061456e565b60405180910390f35b34801561070a57600080fd5b50610725600480360381019061072091906133ba565b6114fc565b005b34801561073357600080fd5b5061073c611530565b6040516107499190614171565b60405180910390f35b34801561075e57600080fd5b5061077960048036038101906107749190613213565b611554565b6040516107869190614156565b60405180910390f35b600061079a82611626565b9050919050565b6060600280546107b0906147b3565b80601f01602080910402602001604051908101604052809291908181526020018280546107dc906147b3565b80156108295780601f106107fe57610100808354040283529160200191610829565b820191906000526020600020905b81548152906001019060200180831161080c57829003601f168201915b5050505050905090565b600061083e826116a0565b61087d576040517f08c379a00000000000000000000000000000000000000000000000000000000081526004016108749061444e565b60405180910390fd5b6006600083815260200190815260200160002060009054906101000a900473ffffffffffffffffffffffffffffffffffffffff169050919050565b60006108c382610f38565b90508073ffffffffffffffffffffffffffffffffffffffff168373ffffffffffffffffffffffffffffffffffffffff161415610934576040517f08c379a000000000000000000000000000000000000000000000000000000000815260040161092b906144ae565b60405180910390fd5b8073ffffffffffffffffffffffffffffffffffffffff1661095361170c565b73ffffffffffffffffffffffffffffffffffffffff16148061098257506109818161097c61170c565b611554565b5b6109c1576040517f08c379a00000000000000000000000000000000000000000000000000000000081526004016109b8906143ae565b60405180910390fd5b6109cb8383611714565b505050565b6000806109db610aec565b9050606f8110610a20576040517f08c379a0000000000000000000000000000000000000000000000000000000008152600401610a179061450e565b60405180910390fd5b6000601f821015610a3a57662386f26fc100009050610a78565b603d821015610a525766470de4df8200009050610a77565b605b821015610a6a5766b1a2bc2ec500009050610a76565b67016345785d8a000090505b5b5b803414610aba576040517f08c379a0000000000000000000000000000000000000000000000000000000008152600401610ab19061426e565b60405180910390fd5b610ac4600d6117cd565b6000610ad0600d6117e3565b9050610ae3610add61170c565b826117f1565b80935050505090565b6000600a80549050905090565b610b0a610b0461170c565b826119bf565b610b49576040517f08c379a0000000000000000000000000000000000000000000000000000000008152600401610b40906144ce565b60405180910390fd5b610b54838383611a9d565b505050565b6000806000838152602001908152602001600020600101549050919050565b610b828282611cf9565b610ba781600160008581526020019081526020016000206115f690919063ffffffff16565b505050565b6000610bb783610fea565b8210610bf8576040517f08c379a0000000000000000000000000000000000000000000000000000000008152600401610bef9061428e565b60405180910390fd5b600860008473ffffffffffffffffffffffffffffffffffffffff1673ffffffffffffffffffffffffffffffffffffffff168152602001908152602001600020600083815260200190815260200160002054905092915050565b610c5b8282611d5f565b610c808160016000858152602001908152602001600020611de290919063ffffffff16565b505050565b610c996000801b610c9461170c565b61114b565b610cd8576040517f08c379a0000000000000000000000000000000000000000000000000000000008152600401610ccf9061422e565b60405180910390fd5b60004790506000610ce761170c565b73ffffffffffffffffffffffffffffffffffffffff1682604051610d0a906140da565b60006040518083038185875af1925050503d8060008114610d47576040519150601f19603f3d011682016040523d82523d6000602084013e610d4c565b606091505b5050905080610d90576040517f08c379a0000000000000000000000000000000000000000000000000000000008152600401610d87906142ee565b60405180910390fd5b5050565b610dc57f65d7a28e3265b37a6474929f336521b332c1681b933f6cb9f3376673440d862a610dc061170c565b61114b565b610e04576040517f08c379a0000000000000000000000000000000000000000000000000000000008152600401610dfb9061424e565b60405180910390fd5b610e0c611e12565b565b610e29838383604051806020016040528060008152506113cf565b505050565b610e3f610e3961170c565b826119bf565b610e7e576040517f08c379a0000000000000000000000000000000000000000000000000000000008152600401610e759061452e565b60405180910390fd5b610e8781611eb4565b50565b6000610e94610aec565b8210610ed5576040517f08c379a0000000000000000000000000000000000000000000000000000000008152600401610ecc906144ee565b60405180910390fd5b600a8281548110610f0f577f4e487b7100000000000000000000000000000000000000000000000000000000600052603260045260246000fd5b90600052602060002001549050919050565b6000600c60009054906101000a900460ff16905090565b6000806004600084815260200190815260200160002060009054906101000a900473ffffffffffffffffffffffffffffffffffffffff169050600073ffffffffffffffffffffffffffffffffffffffff168173ffffffffffffffffffffffffffffffffffffffff161415610fe1576040517f08c379a0000000000000000000000000000000000000000000000000000000008152600401610fd8906143ee565b60405180910390fd5b80915050919050565b60008073ffffffffffffffffffffffffffffffffffffffff168273ffffffffffffffffffffffffffffffffffffffff16141561105b576040517f08c379a0000000000000000000000000000000000000000000000000000000008152600401611052906143ce565b60405180910390fd5b600560008373ffffffffffffffffffffffffffffffffffffffff1673ffffffffffffffffffffffffffffffffffffffff168152602001908152602001600020549050919050565b6110d37f65d7a28e3265b37a6474929f336521b332c1681b933f6cb9f3376673440d862a6110ce61170c565b61114b565b611112576040517f08c379a00000000000000000000000000000000000000000000000000000000081526004016111099061442e565b60405180910390fd5b61111a611fc5565b565b6000611143826001600086815260200190815260200160002061206890919063ffffffff16565b905092915050565b600080600084815260200190815260200160002060000160008373ffffffffffffffffffffffffffffffffffffffff1673ffffffffffffffffffffffffffffffffffffffff16815260200190815260200160002060009054906101000a900460ff16905092915050565b6060600380546111c4906147b3565b80601f01602080910402602001604051908101604052809291908181526020018280546111f0906147b3565b801561123d5780601f106112125761010080835404028352916020019161123d565b820191906000526020600020905b81548152906001019060200180831161122057829003601f168201915b5050505050905090565b6000801b81565b61125661170c565b73ffffffffffffffffffffffffffffffffffffffff168273ffffffffffffffffffffffffffffffffffffffff1614156112c4576040517f08c379a00000000000000000000000000000000000000000000000000000000081526004016112bb9061432e565b60405180910390fd5b80600760006112d161170c565b73ffffffffffffffffffffffffffffffffffffffff1673ffffffffffffffffffffffffffffffffffffffff16815260200190815260200160002060008473ffffffffffffffffffffffffffffffffffffffff1673ffffffffffffffffffffffffffffffffffffffff16815260200190815260200160002060006101000a81548160ff0219169083151502179055508173ffffffffffffffffffffffffffffffffffffffff1661137e61170c565b73ffffffffffffffffffffffffffffffffffffffff167f17307eab39ab6107e8899845ad3d59bd9653f200f220920489ca2b5937696c31836040516113c39190614156565b60405180910390a35050565b6113e06113da61170c565b836119bf565b61141f576040517f08c379a0000000000000000000000000000000000000000000000000000000008152600401611416906144ce565b60405180910390fd5b61142b84848484612082565b50505050565b606061143c826116a0565b61147b576040517f08c379a00000000000000000000000000000000000000000000000000000000081526004016114729061448e565b60405180910390fd5b60006114856120de565b905060008151116114a557604051806020016040528060008152506114d0565b806114af84612170565b6040516020016114c09291906140b6565b6040516020818303038152906040525b915050919050565b60006114f56001600084815260200190815260200160002061231d565b9050919050565b6115068282612332565b61152b8160016000858152602001908152602001600020611de290919063ffffffff16565b505050565b7f65d7a28e3265b37a6474929f336521b332c1681b933f6cb9f3376673440d862a81565b6000600760008473ffffffffffffffffffffffffffffffffffffffff1673ffffffffffffffffffffffffffffffffffffffff16815260200190815260200160002060008373ffffffffffffffffffffffffffffffffffffffff1673ffffffffffffffffffffffffffffffffffffffff16815260200190815260200160002060009054906101000a900460ff16905092915050565b6115f28282612398565b5050565b600061161e836000018373ffffffffffffffffffffffffffffffffffffffff1660001b612478565b905092915050565b60007f780e9d63000000000000000000000000000000000000000000000000000000007bffffffffffffffffffffffffffffffffffffffffffffffffffffffff1916827bffffffffffffffffffffffffffffffffffffffffffffffffffffffff191614806116995750611698826124e8565b5b9050919050565b60008073ffffffffffffffffffffffffffffffffffffffff166004600084815260200190815260200160002060009054906101000a900473ffffffffffffffffffffffffffffffffffffffff1673ffffffffffffffffffffffffffffffffffffffff1614159050919050565b600033905090565b816006600083815260200190815260200160002060006101000a81548173ffffffffffffffffffffffffffffffffffffffff021916908373ffffffffffffffffffffffffffffffffffffffff160217905550808273ffffffffffffffffffffffffffffffffffffffff1661178783610f38565b73ffffffffffffffffffffffffffffffffffffffff167f8c5be1e5ebec7d5bd14f71427d1e84f3dd0314c0f7b2291e5b200ac8c7c3b92560405160405180910390a45050565b6001816000016000828254019250508190555050565b600081600001549050919050565b600073ffffffffffffffffffffffffffffffffffffffff168273ffffffffffffffffffffffffffffffffffffffff161415611861576040517f08c379a00000000000000000000000000000000000000000000000000000000081526004016118589061440e565b60405180910390fd5b61186a816116a0565b156118aa576040517f08c379a00000000000000000000000000000000000000000000000000000000081526004016118a1906142ce565b60405180910390fd5b6118b6600083836125ca565b6001600560008473ffffffffffffffffffffffffffffffffffffffff1673ffffffffffffffffffffffffffffffffffffffff16815260200190815260200160002060008282546119069190614638565b92505081905550816004600083815260200190815260200160002060006101000a81548173ffffffffffffffffffffffffffffffffffffffff021916908373ffffffffffffffffffffffffffffffffffffffff160217905550808273ffffffffffffffffffffffffffffffffffffffff16600073ffffffffffffffffffffffffffffffffffffffff167fddf252ad1be2c89b69c2b068fc378daa952ba7f163c4a11628f55a4df523b3ef60405160405180910390a45050565b60006119ca826116a0565b611a09576040517f08c379a0000000000000000000000000000000000000000000000000000000008152600401611a009061434e565b60405180910390fd5b6000611a1483610f38565b90508073ffffffffffffffffffffffffffffffffffffffff168473ffffffffffffffffffffffffffffffffffffffff161480611a8357508373ffffffffffffffffffffffffffffffffffffffff16611a6b84610833565b73ffffffffffffffffffffffffffffffffffffffff16145b80611a945750611a938185611554565b5b91505092915050565b8273ffffffffffffffffffffffffffffffffffffffff16611abd82610f38565b73ffffffffffffffffffffffffffffffffffffffff1614611b13576040517f08c379a0000000000000000000000000000000000000000000000000000000008152600401611b0a9061446e565b60405180910390fd5b600073ffffffffffffffffffffffffffffffffffffffff168273ffffffffffffffffffffffffffffffffffffffff161415611b83576040517f08c379a0000000000000000000000000000000000000000000000000000000008152600401611b7a9061430e565b60405180910390fd5b611b8e8383836125ca565b611b99600082611714565b6001600560008573ffffffffffffffffffffffffffffffffffffffff1673ffffffffffffffffffffffffffffffffffffffff1681526020019081526020016000206000828254611be991906146bf565b925050819055506001600560008473ffffffffffffffffffffffffffffffffffffffff1673ffffffffffffffffffffffffffffffffffffffff1681526020019081526020016000206000828254611c409190614638565b92505081905550816004600083815260200190815260200160002060006101000a81548173ffffffffffffffffffffffffffffffffffffffff021916908373ffffffffffffffffffffffffffffffffffffffff160217905550808273ffffffffffffffffffffffffffffffffffffffff168473ffffffffffffffffffffffffffffffffffffffff167fddf252ad1be2c89b69c2b068fc378daa952ba7f163c4a11628f55a4df523b3ef60405160405180910390a4505050565b611d12611d0583610b59565b611d0d61170c565b61114b565b611d51576040517f08c379a0000000000000000000000000000000000000000000000000000000008152600401611d48906141ee565b60405180910390fd5b611d5b8282612398565b5050565b611d6761170c565b73ffffffffffffffffffffffffffffffffffffffff168173ffffffffffffffffffffffffffffffffffffffff1614611dd4576040517f08c379a0000000000000000000000000000000000000000000000000000000008152600401611dcb9061454e565b60405180910390fd5b611dde82826125da565b5050565b6000611e0a836000018373ffffffffffffffffffffffffffffffffffffffff1660001b6126bb565b905092915050565b611e1a610f21565b611e59576040517f08c379a0000000000000000000000000000000000000000000000000000000008152600401611e509061420e565b60405180910390fd5b6000600c60006101000a81548160ff0219169083151502179055507f5db9ee0a495bf2e6ff9c91a7834c1ba4fdd244a5e8aa4e537bd38aeae4b073aa611e9d61170c565b604051611eaa91906140ef565b60405180910390a1565b6000611ebf82610f38565b9050611ecd816000846125ca565b611ed8600083611714565b6001600560008373ffffffffffffffffffffffffffffffffffffffff1673ffffffffffffffffffffffffffffffffffffffff1681526020019081526020016000206000828254611f2891906146bf565b925050819055506004600083815260200190815260200160002060006101000a81549073ffffffffffffffffffffffffffffffffffffffff021916905581600073ffffffffffffffffffffffffffffffffffffffff168273ffffffffffffffffffffffffffffffffffffffff167fddf252ad1be2c89b69c2b068fc378daa952ba7f163c4a11628f55a4df523b3ef60405160405180910390a45050565b611fcd610f21565b1561200d576040517f08c379a00000000000000000000000000000000000000000000000000000000081526004016120049061438e565b60405180910390fd5b6001600c60006101000a81548160ff0219169083151502179055507f62e78cea01bee320cd4e420270b5ea74000d11b0c9f74754ebdbfc544b05a25861205161170c565b60405161205e91906140ef565b60405180910390a1565b60006120778360000183612845565b60001c905092915050565b61208d848484611a9d565b612099848484846128df565b6120d8576040517f08c379a00000000000000000000000000000000000000000000000000000000081526004016120cf906142ae565b60405180910390fd5b50505050565b6060600e80546120ed906147b3565b80601f0160208091040260200160405190810160405280929190818152602001828054612119906147b3565b80156121665780601f1061213b57610100808354040283529160200191612166565b820191906000526020600020905b81548152906001019060200180831161214957829003601f168201915b5050505050905090565b606060008214156121b8576040518060400160405280600181526020017f30000000000000000000000000000000000000000000000000000000000000008152509050612318565b600082905060005b600082146121ea5780806121d3906147e5565b915050600a826121e3919061468e565b91506121c0565b60008167ffffffffffffffff81111561222c577f4e487b7100000000000000000000000000000000000000000000000000000000600052604160045260246000fd5b6040519080825280601f01601f19166020018201604052801561225e5781602001600182028036833780820191505090505b5090505b600085146123115760018261227791906146bf565b9150600a85612286919061482e565b60306122929190614638565b60f81b8183815181106122ce577f4e487b7100000000000000000000000000000000000000000000000000000000600052603260045260246000fd5b60200101907effffffffffffffffffffffffffffffffffffffffffffffffffffffffffffff1916908160001a905350600a8561230a919061468e565b9450612262565b8093505050505b919050565b600061232b82600001612a76565b9050919050565b61234b61233e83610b59565b61234661170c565b61114b565b61238a576040517f08c379a00000000000000000000000000000000000000000000000000000000081526004016123819061436e565b60405180910390fd5b61239482826125da565b5050565b6123a2828261114b565b61247457600160008084815260200190815260200160002060000160008373ffffffffffffffffffffffffffffffffffffffff1673ffffffffffffffffffffffffffffffffffffffff16815260200190815260200160002060006101000a81548160ff02191690831515021790555061241961170c565b73ffffffffffffffffffffffffffffffffffffffff168173ffffffffffffffffffffffffffffffffffffffff16837f2f8788117e7eff1d82e926ec794901d17c78024a50270940304540a733656f0d60405160405180910390a45b5050565b60006124848383612a87565b6124dd5782600001829080600181540180825580915050600190039060005260206000200160009091909190915055826000018054905083600101600084815260200190815260200160002081905550600190506124e2565b600090505b92915050565b60007f80ac58cd000000000000000000000000000000000000000000000000000000007bffffffffffffffffffffffffffffffffffffffffffffffffffffffff1916827bffffffffffffffffffffffffffffffffffffffffffffffffffffffff191614806125b357507f5b5e139f000000000000000000000000000000000000000000000000000000007bffffffffffffffffffffffffffffffffffffffffffffffffffffffff1916827bffffffffffffffffffffffffffffffffffffffffffffffffffffffff1916145b806125c357506125c282612aaa565b5b9050919050565b6125d5838383612b24565b505050565b6125e4828261114b565b156126b757600080600084815260200190815260200160002060000160008373ffffffffffffffffffffffffffffffffffffffff1673ffffffffffffffffffffffffffffffffffffffff16815260200190815260200160002060006101000a81548160ff02191690831515021790555061265c61170c565b73ffffffffffffffffffffffffffffffffffffffff168173ffffffffffffffffffffffffffffffffffffffff16837ff6391f5c32d9c69d2a47ea670b442974b53935d1edc7fd64eb21e047a839171b60405160405180910390a45b5050565b600080836001016000848152602001908152602001600020549050600081146128395760006001826126ed91906146bf565b905060006001866000018054905061270591906146bf565b90506000866000018281548110612745577f4e487b7100000000000000000000000000000000000000000000000000000000600052603260045260246000fd5b906000526020600020015490508087600001848154811061278f577f4e487b7100000000000000000000000000000000000000000000000000000000600052603260045260246000fd5b90600052602060002001819055506001836127aa9190614638565b87600101600083815260200190815260200160002081905550866000018054806127fd577f4e487b7100000000000000000000000000000000000000000000000000000000600052603160045260246000fd5b6001900381819060005260206000200160009055905586600101600087815260200190815260200160002060009055600194505050505061283f565b60009150505b92915050565b600081836000018054905011612890576040517f08c379a0000000000000000000000000000000000000000000000000000000008152600401612887906141ae565b60405180910390fd5b8260000182815481106128cc577f4e487b7100000000000000000000000000000000000000000000000000000000600052603260045260246000fd5b9060005260206000200154905092915050565b60006129008473ffffffffffffffffffffffffffffffffffffffff16612b7c565b15612a69578373ffffffffffffffffffffffffffffffffffffffff1663150b7a0261292961170c565b8786866040518563ffffffff1660e01b815260040161294b949392919061410a565b602060405180830381600087803b15801561296557600080fd5b505af192505050801561299657506040513d601f19601f82011682018060405250810190612993919061345b565b60015b612a19573d80600081146129c6576040519150601f19603f3d011682016040523d82523d6000602084013e6129cb565b606091505b50600081511415612a11576040517f08c379a0000000000000000000000000000000000000000000000000000000008152600401612a08906142ae565b60405180910390fd5b805181602001fd5b63150b7a0260e01b7bffffffffffffffffffffffffffffffffffffffffffffffffffffffff1916817bffffffffffffffffffffffffffffffffffffffffffffffffffffffff191614915050612a6e565b600190505b949350505050565b600081600001805490509050919050565b600080836001016000848152602001908152602001600020541415905092915050565b60007f5a05180f000000000000000000000000000000000000000000000000000000007bffffffffffffffffffffffffffffffffffffffffffffffffffffffff1916827bffffffffffffffffffffffffffffffffffffffffffffffffffffffff19161480612b1d5750612b1c82612b8f565b5b9050919050565b612b2f838383612c09565b612b37610f21565b15612b77576040517f08c379a0000000000000000000000000000000000000000000000000000000008152600401612b6e906141ce565b60405180910390fd5b505050565b600080823b905060008111915050919050565b60007f7965db0b000000000000000000000000000000000000000000000000000000007bffffffffffffffffffffffffffffffffffffffffffffffffffffffff1916827bffffffffffffffffffffffffffffffffffffffffffffffffffffffff19161480612c025750612c0182612d1d565b5b9050919050565b612c14838383612d87565b600073ffffffffffffffffffffffffffffffffffffffff168373ffffffffffffffffffffffffffffffffffffffff161415612c5757612c5281612d8c565b612c96565b8173ffffffffffffffffffffffffffffffffffffffff168373ffffffffffffffffffffffffffffffffffffffff1614612c9557612c948382612dd5565b5b5b600073ffffffffffffffffffffffffffffffffffffffff168273ffffffffffffffffffffffffffffffffffffffff161415612cd957612cd481612f42565b612d18565b8273ffffffffffffffffffffffffffffffffffffffff168273ffffffffffffffffffffffffffffffffffffffff1614612d1757612d168282613085565b5b5b505050565b60007f01ffc9a7000000000000000000000000000000000000000000000000000000007bffffffffffffffffffffffffffffffffffffffffffffffffffffffff1916827bffffffffffffffffffffffffffffffffffffffffffffffffffffffff1916149050919050565b505050565b600a80549050600b600083815260200190815260200160002081905550600a81908060018154018082558091505060019003906000526020600020016000909190919091505550565b60006001612de284610fea565b612dec91906146bf565b9050600060096000848152602001908152602001600020549050818114612ed1576000600860008673ffffffffffffffffffffffffffffffffffffffff1673ffffffffffffffffffffffffffffffffffffffff168152602001908152602001600020600084815260200190815260200160002054905080600860008773ffffffffffffffffffffffffffffffffffffffff1673ffffffffffffffffffffffffffffffffffffffff168152602001908152602001600020600084815260200190815260200160002081905550816009600083815260200190815260200160002081905550505b6009600084815260200190815260200160002060009055600860008573ffffffffffffffffffffffffffffffffffffffff1673ffffffffffffffffffffffffffffffffffffffff16815260200190815260200160002060008381526020019081526020016000206000905550505050565b60006001600a80549050612f5691906146bf565b90506000600b60008481526020019081526020016000205490506000600a8381548110612fac577f4e487b7100000000000000000000000000000000000000000000000000000000600052603260045260246000fd5b9060005260206000200154905080600a8381548110612ff4577f4e487b7100000000000000000000000000000000000000000000000000000000600052603260045260246000fd5b906000526020600020018190555081600b600083815260200190815260200160002081905550600b600085815260200190815260200160002060009055600a805480613069577f4e487b7100000000000000000000000000000000000000000000000000000000600052603160045260246000fd5b6001900381819060005260206000200160009055905550505050565b600061309083610fea565b905081600860008573ffffffffffffffffffffffffffffffffffffffff1673ffffffffffffffffffffffffffffffffffffffff168152602001908152602001600020600083815260200190815260200160002081905550806009600084815260200190815260200160002081905550505050565b6000613117613112846145ba565b614589565b90508281526020810184848401111561312f57600080fd5b61313a848285614771565b509392505050565b6000813590506131518161492c565b92915050565b60008135905061316681614943565b92915050565b60008135905061317b8161495a565b92915050565b60008135905061319081614971565b92915050565b6000815190506131a581614971565b92915050565b600082601f8301126131bc57600080fd5b81356131cc848260208601613104565b91505092915050565b6000813590506131e481614988565b92915050565b6000602082840312156131fc57600080fd5b600061320a84828501613142565b91505092915050565b6000806040838503121561322657600080fd5b600061323485828601613142565b925050602061324585828601613142565b9150509250929050565b60008060006060848603121561326457600080fd5b600061327286828701613142565b935050602061328386828701613142565b9250506040613294868287016131d5565b9150509250925092565b600080600080608085870312156132b457600080fd5b60006132c287828801613142565b94505060206132d387828801613142565b93505060406132e4878288016131d5565b925050606085013567ffffffffffffffff81111561330157600080fd5b61330d878288016131ab565b91505092959194509250565b6000806040838503121561332c57600080fd5b600061333a85828601613142565b925050602061334b85828601613157565b9150509250929050565b6000806040838503121561336857600080fd5b600061337685828601613142565b9250506020613387858286016131d5565b9150509250929050565b6000602082840312156133a357600080fd5b60006133b18482850161316c565b91505092915050565b600080604083850312156133cd57600080fd5b60006133db8582860161316c565b92505060206133ec85828601613142565b9150509250929050565b6000806040838503121561340957600080fd5b60006134178582860161316c565b9250506020613428858286016131d5565b9150509250929050565b60006020828403121561344457600080fd5b600061345284828501613181565b91505092915050565b60006020828403121561346d57600080fd5b600061347b84828501613196565b91505092915050565b60006020828403121561349657600080fd5b60006134a4848285016131d5565b91505092915050565b6134b6816146f3565b82525050565b6134c581614705565b82525050565b6134d481614711565b82525050565b60006134e5826145ea565b6134ef8185614600565b93506134ff818560208601614780565b6135088161491b565b840191505092915050565b600061351e826145f5565b613528818561461c565b9350613538818560208601614780565b6135418161491b565b840191505092915050565b6000613557826145f5565b613561818561462d565b9350613571818560208601614780565b80840191505092915050565b600061358a60228361461c565b91507f456e756d657261626c655365743a20696e646578206f7574206f6620626f756e60008301527f64730000000000000000000000000000000000000000000000000000000000006020830152604082019050919050565b60006135f0602b8361461c565b91507f4552433732315061757361626c653a20746f6b656e207472616e73666572207760008301527f68696c65207061757365640000000000000000000000000000000000000000006020830152604082019050919050565b6000613656602f8361461c565b91507f416363657373436f6e74726f6c3a2073656e646572206d75737420626520616e60008301527f2061646d696e20746f206772616e7400000000000000000000000000000000006020830152604082019050919050565b60006136bc60148361461c565b91507f5061757361626c653a206e6f74207061757365640000000000000000000000006000830152602082019050919050565b60006136fc60278361461c565b91507f546f6b656e3a206d75737420686176652061646d696e20726f6c6520746f207760008301527f69746864726177000000000000000000000000000000000000000000000000006020830152604082019050919050565b600061376260278361461c565b91507f546f6b656e3a206d75737420686176652070617573657220726f6c6520746f2060008301527f756e7061757365000000000000000000000000000000000000000000000000006020830152604082019050919050565b60006137c8602a8361461c565b91507f546f6b656e3a20416d6f756e74206f662045746865722073656e74206973206e60008301527f6f7420636f7272656374000000000000000000000000000000000000000000006020830152604082019050919050565b600061382e602b8361461c565b91507f455243373231456e756d657261626c653a206f776e657220696e646578206f7560008301527f74206f6620626f756e64730000000000000000000000000000000000000000006020830152604082019050919050565b600061389460328361461c565b91507f4552433732313a207472616e7366657220746f206e6f6e20455243373231526560008301527f63656976657220696d706c656d656e74657200000000000000000000000000006020830152604082019050919050565b60006138fa601c8361461c565b91507f4552433732313a20746f6b656e20616c7265616479206d696e746564000000006000830152602082019050919050565b600061393a60148361461c565b91507f4661696c656420746f2073656e642045746865720000000000000000000000006000830152602082019050919050565b600061397a60248361461c565b91507f4552433732313a207472616e7366657220746f20746865207a65726f2061646460008301527f72657373000000000000000000000000000000000000000000000000000000006020830152604082019050919050565b60006139e060198361461c565b91507f4552433732313a20617070726f766520746f2063616c6c6572000000000000006000830152602082019050919050565b6000613a20602c8361461c565b91507f4552433732313a206f70657261746f7220717565727920666f72206e6f6e657860008301527f697374656e7420746f6b656e00000000000000000000000000000000000000006020830152604082019050919050565b6000613a8660308361461c565b91507f416363657373436f6e74726f6c3a2073656e646572206d75737420626520616e60008301527f2061646d696e20746f207265766f6b65000000000000000000000000000000006020830152604082019050919050565b6000613aec60108361461c565b91507f5061757361626c653a20706175736564000000000000000000000000000000006000830152602082019050919050565b6000613b2c60388361461c565b91507f4552433732313a20617070726f76652063616c6c6572206973206e6f74206f7760008301527f6e6572206e6f7220617070726f76656420666f7220616c6c00000000000000006020830152604082019050919050565b6000613b92602a8361461c565b91507f4552433732313a2062616c616e636520717565727920666f7220746865207a6560008301527f726f2061646472657373000000000000000000000000000000000000000000006020830152604082019050919050565b6000613bf860298361461c565b91507f4552433732313a206f776e657220717565727920666f72206e6f6e657869737460008301527f656e7420746f6b656e00000000000000000000000000000000000000000000006020830152604082019050919050565b6000613c5e60208361461c565b91507f4552433732313a206d696e7420746f20746865207a65726f20616464726573736000830152602082019050919050565b6000613c9e60258361461c565b91507f546f6b656e3a206d75737420686176652070617573657220726f6c6520746f2060008301527f70617573650000000000000000000000000000000000000000000000000000006020830152604082019050919050565b6000613d04602c8361461c565b91507f4552433732313a20617070726f76656420717565727920666f72206e6f6e657860008301527f697374656e7420746f6b656e00000000000000000000000000000000000000006020830152604082019050919050565b6000613d6a60298361461c565b91507f4552433732313a207472616e73666572206f6620746f6b656e2074686174206960008301527f73206e6f74206f776e00000000000000000000000000000000000000000000006020830152604082019050919050565b6000613dd0602f8361461c565b91507f4552433732314d657461646174613a2055524920717565727920666f72206e6f60008301527f6e6578697374656e7420746f6b656e00000000000000000000000000000000006020830152604082019050919050565b6000613e3660218361461c565b91507f4552433732313a20617070726f76616c20746f2063757272656e74206f776e6560008301527f72000000000000000000000000000000000000000000000000000000000000006020830152604082019050919050565b6000613e9c600083614611565b9150600082019050919050565b6000613eb660318361461c565b91507f4552433732313a207472616e736665722063616c6c6572206973206e6f74206f60008301527f776e6572206e6f7220617070726f7665640000000000000000000000000000006020830152604082019050919050565b6000613f1c602c8361461c565b91507f455243373231456e756d657261626c653a20676c6f62616c20696e646578206f60008301527f7574206f6620626f756e647300000000000000000000000000000000000000006020830152604082019050919050565b6000613f8260348361461c565b91507f546f6b656e3a20746865206c696d69746564206e756d626572206f6620746f6b60008301527f656e7320686173206265656e20726561636865640000000000000000000000006020830152604082019050919050565b6000613fe860308361461c565b91507f4552433732314275726e61626c653a2063616c6c6572206973206e6f74206f7760008301527f6e6572206e6f7220617070726f766564000000000000000000000000000000006020830152604082019050919050565b600061404e602f8361461c565b91507f416363657373436f6e74726f6c3a2063616e206f6e6c792072656e6f756e636560008301527f20726f6c657320666f722073656c6600000000000000000000000000000000006020830152604082019050919050565b6140b081614767565b82525050565b60006140c2828561354c565b91506140ce828461354c565b91508190509392505050565b60006140e582613e8f565b9150819050919050565b600060208201905061410460008301846134ad565b92915050565b600060808201905061411f60008301876134ad565b61412c60208301866134ad565b61413960408301856140a7565b818103606083015261414b81846134da565b905095945050505050565b600060208201905061416b60008301846134bc565b92915050565b600060208201905061418660008301846134cb565b92915050565b600060208201905081810360008301526141a68184613513565b905092915050565b600060208201905081810360008301526141c78161357d565b9050919050565b600060208201905081810360008301526141e7816135e3565b9050919050565b6000602082019050818103600083015261420781613649565b9050919050565b60006020820190508181036000830152614227816136af565b9050919050565b60006020820190508181036000830152614247816136ef565b9050919050565b6000602082019050818103600083015261426781613755565b9050919050565b60006020820190508181036000830152614287816137bb565b9050919050565b600060208201905081810360008301526142a781613821565b9050919050565b600060208201905081810360008301526142c781613887565b9050919050565b600060208201905081810360008301526142e7816138ed565b9050919050565b600060208201905081810360008301526143078161392d565b9050919050565b600060208201905081810360008301526143278161396d565b9050919050565b60006020820190508181036000830152614347816139d3565b9050919050565b6000602082019050818103600083015261436781613a13565b9050919050565b6000602082019050818103600083015261438781613a79565b9050919050565b600060208201905081810360008301526143a781613adf565b9050919050565b600060208201905081810360008301526143c781613b1f565b9050919050565b600060208201905081810360008301526143e781613b85565b9050919050565b6000602082019050818103600083015261440781613beb565b9050919050565b6000602082019050818103600083015261442781613c51565b9050919050565b6000602082019050818103600083015261444781613c91565b9050919050565b6000602082019050818103600083015261446781613cf7565b9050919050565b6000602082019050818103600083015261448781613d5d565b9050919050565b600060208201905081810360008301526144a781613dc3565b9050919050565b600060208201905081810360008301526144c781613e29565b9050919050565b600060208201905081810360008301526144e781613ea9565b9050919050565b6000602082019050818103600083015261450781613f0f565b9050919050565b6000602082019050818103600083015261452781613f75565b9050919050565b6000602082019050818103600083015261454781613fdb565b9050919050565b6000602082019050818103600083015261456781614041565b9050919050565b600060208201905061458360008301846140a7565b92915050565b6000604051905081810181811067ffffffffffffffff821117156145b0576145af6148ec565b5b8060405250919050565b600067ffffffffffffffff8211156145d5576145d46148ec565b5b601f19601f8301169050602081019050919050565b600081519050919050565b600081519050919050565b600082825260208201905092915050565b600081905092915050565b600082825260208201905092915050565b600081905092915050565b600061464382614767565b915061464e83614767565b9250827fffffffffffffffffffffffffffffffffffffffffffffffffffffffffffffffff038211156146835761468261485f565b5b828201905092915050565b600061469982614767565b91506146a483614767565b9250826146b4576146b361488e565b5b828204905092915050565b60006146ca82614767565b91506146d583614767565b9250828210156146e8576146e761485f565b5b828203905092915050565b60006146fe82614747565b9050919050565b60008115159050919050565b6000819050919050565b60007fffffffff0000000000000000000000000000000000000000000000000000000082169050919050565b600073ffffffffffffffffffffffffffffffffffffffff82169050919050565b6000819050919050565b82818337600083830152505050565b60005b8381101561479e578082015181840152602081019050614783565b838111156147ad576000848401525b50505050565b600060028204905060018216806147cb57607f821691505b602082108114156147df576147de6148bd565b5b50919050565b60006147f082614767565b91507fffffffffffffffffffffffffffffffffffffffffffffffffffffffffffffffff8214156148235761482261485f565b5b600182019050919050565b600061483982614767565b915061484483614767565b9250826148545761485361488e565b5b828206905092915050565b7f4e487b7100000000000000000000000000000000000000000000000000000000600052601160045260246000fd5b7f4e487b7100000000000000000000000000000000000000000000000000000000600052601260045260246000fd5b7f4e487b7100000000000000000000000000000000000000000000000000000000600052602260045260246000fd5b7f4e487b7100000000000000000000000000000000000000000000000000000000600052604160045260246000fd5b6000601f19601f8301169050919050565b614935816146f3565b811461494057600080fd5b50565b61494c81614705565b811461495757600080fd5b50565b61496381614711565b811461496e57600080fd5b50565b61497a8161471b565b811461498557600080fd5b50565b61499181614767565b811461499c57600080fd5b5056fea2646970667358221220961c7a610a7c29bd84286110d38fde32ae4adb1e60faad3296fd13edd4ecca0464736f6c63430008000033",
  "linkReferences": {},
  "deployedLinkReferences": {},
  "address": "0xF41A242AA1ec530d398F34B241d23fED16aaC938"
}