{
  "_format": "hh-sol-artifact-1",
  "contractName": "Token",
  "sourceName": "contracts/Token.sol",
  "abi": [
    {
      "inputs": [
        {
          "internalType": "string",
          "name": "name",
          "type": "string"
        },
        {
          "internalType": "string",
          "name": "symbol",
          "type": "string"
        },
        {
          "internalType": "string",
          "name": "baseTokenURI",
          "type": "string"
        }
      ],
      "stateMutability": "nonpayable",
      "type": "constructor"
    },
    {
      "anonymous": false,
      "inputs": [
        {
          "indexed": true,
          "internalType": "address",
          "name": "owner",
          "type": "address"
        },
        {
          "indexed": true,
          "internalType": "address",
          "name": "approved",
          "type": "address"
        },
        {
          "indexed": true,
          "internalType": "uint256",
          "name": "tokenId",
          "type": "uint256"
        }
      ],
      "name": "Approval",
      "type": "event"
    },
    {
      "anonymous": false,
      "inputs": [
        {
          "indexed": true,
          "internalType": "address",
          "name": "owner",
          "type": "address"
        },
        {
          "indexed": true,
          "internalType": "address",
          "name": "operator",
          "type": "address"
        },
        {
          "indexed": false,
          "internalType": "bool",
          "name": "approved",
          "type": "bool"
        }
      ],
      "name": "ApprovalForAll",
      "type": "event"
    },
    {
      "anonymous": false,
      "inputs": [
        {
          "indexed": false,
          "internalType": "address",
          "name": "account",
          "type": "address"
        }
      ],
      "name": "Paused",
      "type": "event"
    },
    {
      "anonymous": false,
      "inputs": [
        {
          "indexed": true,
          "internalType": "bytes32",
          "name": "role",
          "type": "bytes32"
        },
        {
          "indexed": true,
          "internalType": "bytes32",
          "name": "previousAdminRole",
          "type": "bytes32"
        },
        {
          "indexed": true,
          "internalType": "bytes32",
          "name": "newAdminRole",
          "type": "bytes32"
        }
      ],
      "name": "RoleAdminChanged",
      "type": "event"
    },
    {
      "anonymous": false,
      "inputs": [
        {
          "indexed": true,
          "internalType": "bytes32",
          "name": "role",
          "type": "bytes32"
        },
        {
          "indexed": true,
          "internalType": "address",
          "name": "account",
          "type": "address"
        },
        {
          "indexed": true,
          "internalType": "address",
          "name": "sender",
          "type": "address"
        }
      ],
      "name": "RoleGranted",
      "type": "event"
    },
    {
      "anonymous": false,
      "inputs": [
        {
          "indexed": true,
          "internalType": "bytes32",
          "name": "role",
          "type": "bytes32"
        },
        {
          "indexed": true,
          "internalType": "address",
          "name": "account",
          "type": "address"
        },
        {
          "indexed": true,
          "internalType": "address",
          "name": "sender",
          "type": "address"
        }
      ],
      "name": "RoleRevoked",
      "type": "event"
    },
    {
      "anonymous": false,
      "inputs": [
        {
          "indexed": true,
          "internalType": "address",
          "name": "from",
          "type": "address"
        },
        {
          "indexed": true,
          "internalType": "address",
          "name": "to",
          "type": "address"
        },
        {
          "indexed": true,
          "internalType": "uint256",
          "name": "tokenId",
          "type": "uint256"
        }
      ],
      "name": "Transfer",
      "type": "event"
    },
    {
      "anonymous": false,
      "inputs": [
        {
          "indexed": false,
          "internalType": "address",
          "name": "account",
          "type": "address"
        }
      ],
      "name": "Unpaused",
      "type": "event"
    },
    {
      "inputs": [],
      "name": "DEFAULT_ADMIN_ROLE",
      "outputs": [
        {
          "internalType": "bytes32",
          "name": "",
          "type": "bytes32"
        }
      ],
      "stateMutability": "view",
      "type": "function"
    },
    {
      "inputs": [],
      "name": "PAUSER_ROLE",
      "outputs": [
        {
          "internalType": "bytes32",
          "name": "",
          "type": "bytes32"
        }
      ],
      "stateMutability": "view",
      "type": "function"
    },
    {
      "inputs": [
        {
          "internalType": "address",
          "name": "to",
          "type": "address"
        },
        {
          "internalType": "uint256",
          "name": "tokenId",
          "type": "uint256"
        }
      ],
      "name": "approve",
      "outputs": [],
      "stateMutability": "nonpayable",
      "type": "function"
    },
    {
      "inputs": [
        {
          "internalType": "address",
          "name": "owner",
          "type": "address"
        }
      ],
      "name": "balanceOf",
      "outputs": [
        {
          "internalType": "uint256",
          "name": "",
          "type": "uint256"
        }
      ],
      "stateMutability": "view",
      "type": "function"
    },
    {
      "inputs": [
        {
          "internalType": "uint256",
          "name": "tokenId",
          "type": "uint256"
        }
      ],
      "name": "burn",
      "outputs": [],
      "stateMutability": "nonpayable",
      "type": "function"
    },
    {
      "inputs": [
        {
          "internalType": "uint256",
          "name": "tokenId",
          "type": "uint256"
        }
      ],
      "name": "getApproved",
      "outputs": [
        {
          "internalType": "address",
          "name": "",
          "type": "address"
        }
      ],
      "stateMutability": "view",
      "type": "function"
    },
    {
      "inputs": [
        {
          "internalType": "bytes32",
          "name": "role",
          "type": "bytes32"
        }
      ],
      "name": "getRoleAdmin",
      "outputs": [
        {
          "internalType": "bytes32",
          "name": "",
          "type": "bytes32"
        }
      ],
      "stateMutability": "view",
      "type": "function"
    },
    {
      "inputs": [
        {
          "internalType": "bytes32",
          "name": "role",
          "type": "bytes32"
        },
        {
          "internalType": "uint256",
          "name": "index",
          "type": "uint256"
        }
      ],
      "name": "getRoleMember",
      "outputs": [
        {
          "internalType": "address",
          "name": "",
          "type": "address"
        }
      ],
      "stateMutability": "view",
      "type": "function"
    },
    {
      "inputs": [
        {
          "internalType": "bytes32",
          "name": "role",
          "type": "bytes32"
        }
      ],
      "name": "getRoleMemberCount",
      "outputs": [
        {
          "internalType": "uint256",
          "name": "",
          "type": "uint256"
        }
      ],
      "stateMutability": "view",
      "type": "function"
    },
    {
      "inputs": [
        {
          "internalType": "bytes32",
          "name": "role",
          "type": "bytes32"
        },
        {
          "internalType": "address",
          "name": "account",
          "type": "address"
        }
      ],
      "name": "grantRole",
      "outputs": [],
      "stateMutability": "nonpayable",
      "type": "function"
    },
    {
      "inputs": [
        {
          "internalType": "bytes32",
          "name": "role",
          "type": "bytes32"
        },
        {
          "internalType": "address",
          "name": "account",
          "type": "address"
        }
      ],
      "name": "hasRole",
      "outputs": [
        {
          "internalType": "bool",
          "name": "",
          "type": "bool"
        }
      ],
      "stateMutability": "view",
      "type": "function"
    },
    {
      "inputs": [
        {
          "internalType": "address",
          "name": "owner",
          "type": "address"
        },
        {
          "internalType": "address",
          "name": "operator",
          "type": "address"
        }
      ],
      "name": "isApprovedForAll",
      "outputs": [
        {
          "internalType": "bool",
          "name": "",
          "type": "bool"
        }
      ],
      "stateMutability": "view",
      "type": "function"
    },
    {
      "inputs": [],
      "name": "mint",
      "outputs": [
        {
          "internalType": "uint256",
          "name": "",
          "type": "uint256"
        }
      ],
      "stateMutability": "payable",
      "type": "function"
    },
    {
      "inputs": [],
      "name": "name",
      "outputs": [
        {
          "internalType": "string",
          "name": "",
          "type": "string"
        }
      ],
      "stateMutability": "view",
      "type": "function"
    },
    {
      "inputs": [
        {
          "internalType": "uint256",
          "name": "tokenId",
          "type": "uint256"
        }
      ],
      "name": "ownerOf",
      "outputs": [
        {
          "internalType": "address",
          "name": "",
          "type": "address"
        }
      ],
      "stateMutability": "view",
      "type": "function"
    },
    {
      "inputs": [],
      "name": "pause",
      "outputs": [],
      "stateMutability": "nonpayable",
      "type": "function"
    },
    {
      "inputs": [],
      "name": "paused",
      "outputs": [
        {
          "internalType": "bool",
          "name": "",
          "type": "bool"
        }
      ],
      "stateMutability": "view",
      "type": "function"
    },
    {
      "inputs": [
        {
          "internalType": "bytes32",
          "name": "role",
          "type": "bytes32"
        },
        {
          "internalType": "address",
          "name": "account",
          "type": "address"
        }
      ],
      "name": "renounceRole",
      "outputs": [],
      "stateMutability": "nonpayable",
      "type": "function"
    },
    {
      "inputs": [
        {
          "internalType": "bytes32",
          "name": "role",
          "type": "bytes32"
        },
        {
          "internalType": "address",
          "name": "account",
          "type": "address"
        }
      ],
      "name": "revokeRole",
      "outputs": [],
      "stateMutability": "nonpayable",
      "type": "function"
    },
    {
      "inputs": [
        {
          "internalType": "address",
          "name": "from",
          "type": "address"
        },
        {
          "internalType": "address",
          "name": "to",
          "type": "address"
        },
        {
          "internalType": "uint256",
          "name": "tokenId",
          "type": "uint256"
        }
      ],
      "name": "safeTransferFrom",
      "outputs": [],
      "stateMutability": "nonpayable",
      "type": "function"
    },
    {
      "inputs": [
        {
          "internalType": "address",
          "name": "from",
          "type": "address"
        },
        {
          "internalType": "address",
          "name": "to",
          "type": "address"
        },
        {
          "internalType": "uint256",
          "name": "tokenId",
          "type": "uint256"
        },
        {
          "internalType": "bytes",
          "name": "_data",
          "type": "bytes"
        }
      ],
      "name": "safeTransferFrom",
      "outputs": [],
      "stateMutability": "nonpayable",
      "type": "function"
    },
    {
      "inputs": [
        {
          "internalType": "address",
          "name": "operator",
          "type": "address"
        },
        {
          "internalType": "bool",
          "name": "approved",
          "type": "bool"
        }
      ],
      "name": "setApprovalForAll",
      "outputs": [],
      "stateMutability": "nonpayable",
      "type": "function"
    },
    {
      "inputs": [
        {
          "internalType": "bytes4",
          "name": "interfaceId",
          "type": "bytes4"
        }
      ],
      "name": "supportsInterface",
      "outputs": [
        {
          "internalType": "bool",
          "name": "",
          "type": "bool"
        }
      ],
      "stateMutability": "view",
      "type": "function"
    },
    {
      "inputs": [],
      "name": "symbol",
      "outputs": [
        {
          "internalType": "string",
          "name": "",
          "type": "string"
        }
      ],
      "stateMutability": "view",
      "type": "function"
    },
    {
      "inputs": [
        {
          "internalType": "uint256",
          "name": "index",
          "type": "uint256"
        }
      ],
      "name": "tokenByIndex",
      "outputs": [
        {
          "internalType": "uint256",
          "name": "",
          "type": "uint256"
        }
      ],
      "stateMutability": "view",
      "type": "function"
    },
    {
      "inputs": [
        {
          "internalType": "address",
          "name": "owner",
          "type": "address"
        },
        {
          "internalType": "uint256",
          "name": "index",
          "type": "uint256"
        }
      ],
      "name": "tokenOfOwnerByIndex",
      "outputs": [
        {
          "internalType": "uint256",
          "name": "",
          "type": "uint256"
        }
      ],
      "stateMutability": "view",
      "type": "function"
    },
    {
      "inputs": [
        {
          "internalType": "uint256",
          "name": "tokenId",
          "type": "uint256"
        }
      ],
      "name": "tokenURI",
      "outputs": [
        {
          "internalType": "string",
          "name": "",
          "type": "string"
        }
      ],
      "stateMutability": "view",
      "type": "function"
    },
    {
      "inputs": [],
      "name": "totalSupply",
      "outputs": [
        {
          "internalType": "uint256",
          "name": "",
          "type": "uint256"
        }
      ],
      "stateMutability": "view",
      "type": "function"
    },
    {
      "inputs": [
        {
          "internalType": "address",
          "name": "from",
          "type": "address"
        },
        {
          "internalType": "address",
          "name": "to",
          "type": "address"
        },
        {
          "internalType": "uint256",
          "name": "tokenId",
          "type": "uint256"
        }
      ],
      "name": "transferFrom",
      "outputs": [],
      "stateMutability": "nonpayable",
      "type": "function"
    },
    {
      "inputs": [],
      "name": "unpause",
      "outputs": [],
      "stateMutability": "nonpayable",
      "type": "function"
    }
  ],
  "bytecode": "0x60806040523480156200001157600080fd5b5060405162004c3738038062004c378339818101604052810190620000379190620004c7565b8282816002908051906020019062000051929190620003a5565b5080600390805190602001906200006a929190620003a5565b5050506000600c60006101000a81548160ff02191690831515021790555080600e9080519060200190620000a0929190620003a5565b50620000c56000801b620000b96200010f60201b60201c565b6200011760201b60201c565b620001067f65d7a28e3265b37a6474929f336521b332c1681b933f6cb9f3376673440d862a620000fa6200010f60201b60201c565b6200011760201b60201c565b50505062000699565b600033905090565b6200012e82826200015f60201b620013cd1760201c565b6200015a81600160008581526020019081526020016000206200017560201b620013db1790919060201c565b505050565b620001718282620001ad60201b60201c565b5050565b6000620001a5836000018373ffffffffffffffffffffffffffffffffffffffff1660001b6200029e60201b60201c565b905092915050565b620001bf82826200031860201b60201c565b6200029a57600160008084815260200190815260200160002060000160008373ffffffffffffffffffffffffffffffffffffffff1673ffffffffffffffffffffffffffffffffffffffff16815260200190815260200160002060006101000a81548160ff0219169083151502179055506200023f6200010f60201b60201c565b73ffffffffffffffffffffffffffffffffffffffff168173ffffffffffffffffffffffffffffffffffffffff16837f2f8788117e7eff1d82e926ec794901d17c78024a50270940304540a733656f0d60405160405180910390a45b5050565b6000620002b283836200038260201b60201c565b6200030d57826000018290806001815401808255809150506001900390600052602060002001600090919091909150558260000180549050836001016000848152602001908152602001600020819055506001905062000312565b600090505b92915050565b600080600084815260200190815260200160002060000160008373ffffffffffffffffffffffffffffffffffffffff1673ffffffffffffffffffffffffffffffffffffffff16815260200190815260200160002060009054906101000a900460ff16905092915050565b600080836001016000848152602001908152602001600020541415905092915050565b828054620003b39062000605565b90600052602060002090601f016020900481019282620003d7576000855562000423565b82601f10620003f257805160ff191683800117855562000423565b8280016001018555821562000423579182015b828111156200042257825182559160200191906001019062000405565b5b50905062000432919062000436565b5090565b5b808211156200045157600081600090555060010162000437565b5090565b60006200046c62000466846200059c565b62000568565b9050828152602081018484840111156200048557600080fd5b62000492848285620005cf565b509392505050565b600082601f830112620004ac57600080fd5b8151620004be84826020860162000455565b91505092915050565b600080600060608486031215620004dd57600080fd5b600084015167ffffffffffffffff811115620004f857600080fd5b62000506868287016200049a565b935050602084015167ffffffffffffffff8111156200052457600080fd5b62000532868287016200049a565b925050604084015167ffffffffffffffff8111156200055057600080fd5b6200055e868287016200049a565b9150509250925092565b6000604051905081810181811067ffffffffffffffff821117156200059257620005916200066a565b5b8060405250919050565b600067ffffffffffffffff821115620005ba57620005b96200066a565b5b601f19601f8301169050602081019050919050565b60005b83811015620005ef578082015181840152602081019050620005d2565b83811115620005ff576000848401525b50505050565b600060028204905060018216806200061e57607f821691505b602082108114156200063557620006346200063b565b5b50919050565b7f4e487b7100000000000000000000000000000000000000000000000000000000600052602260045260246000fd5b7f4e487b7100000000000000000000000000000000000000000000000000000000600052604160045260246000fd5b61458e80620006a96000396000f3fe6080604052600436106101cd5760003560e01c80635c975abb116100f7578063a217fddf11610095578063ca15c87311610064578063ca15c8731461069f578063d547741f146106dc578063e63ab1e914610705578063e985e9c514610730576101cd565b8063a217fddf146105e5578063a22cb46514610610578063b88d4fde14610639578063c87b56dd14610662576101cd565b80638456cb59116100d15780638456cb59146105295780639010d07c1461054057806391d148541461057d57806395d89b41146105ba576101cd565b80635c975abb146104845780636352211e146104af57806370a08231146104ec576101cd565b8063248a9ca31161016f5780633f4ba83a1161013e5780633f4ba83a146103de57806342842e0e146103f557806342966c681461041e5780634f6ccce714610447576101cd565b8063248a9ca3146103125780632f2ff15d1461034f5780632f745c591461037857806336568abe146103b5576101cd565b8063095ea7b3116101ab578063095ea7b3146102775780631249c58b146102a057806318160ddd146102be57806323b872dd146102e9576101cd565b806301ffc9a7146101d257806306fdde031461020f578063081812fc1461023a575b600080fd5b3480156101de57600080fd5b506101f960048036038101906101f49190613217565b61076d565b6040516102069190613d9a565b60405180910390f35b34801561021b57600080fd5b5061022461077f565b6040516102319190613dd0565b60405180910390f35b34801561024657600080fd5b50610261600480360381019061025c9190613269565b610811565b60405161026e9190613d33565b60405180910390f35b34801561028357600080fd5b5061029e6004803603810190610299919061313a565b610896565b005b6102a86109ae565b6040516102b59190614132565b60405180910390f35b3480156102ca57600080fd5b506102d36109e0565b6040516102e09190614132565b60405180910390f35b3480156102f557600080fd5b50610310600480360381019061030b9190613034565b6109ed565b005b34801561031e57600080fd5b5061033960048036038101906103349190613176565b610a4d565b6040516103469190613db5565b60405180910390f35b34801561035b57600080fd5b506103766004803603810190610371919061319f565b610a6c565b005b34801561038457600080fd5b5061039f600480360381019061039a919061313a565b610aa0565b6040516103ac9190614132565b60405180910390f35b3480156103c157600080fd5b506103dc60048036038101906103d7919061319f565b610b45565b005b3480156103ea57600080fd5b506103f3610b79565b005b34801561040157600080fd5b5061041c60048036038101906104179190613034565b610bf3565b005b34801561042a57600080fd5b5061044560048036038101906104409190613269565b610c13565b005b34801561045357600080fd5b5061046e60048036038101906104699190613269565b610c6f565b60405161047b9190614132565b60405180910390f35b34801561049057600080fd5b50610499610d06565b6040516104a69190613d9a565b60405180910390f35b3480156104bb57600080fd5b506104d660048036038101906104d19190613269565b610d1d565b6040516104e39190613d33565b60405180910390f35b3480156104f857600080fd5b50610513600480360381019061050e9190612fcf565b610dcf565b6040516105209190614132565b60405180910390f35b34801561053557600080fd5b5061053e610e87565b005b34801561054c57600080fd5b50610567600480360381019061056291906131db565b610f01565b6040516105749190613d33565b60405180910390f35b34801561058957600080fd5b506105a4600480360381019061059f919061319f565b610f30565b6040516105b19190613d9a565b60405180910390f35b3480156105c657600080fd5b506105cf610f9a565b6040516105dc9190613dd0565b60405180910390f35b3480156105f157600080fd5b506105fa61102c565b6040516106079190613db5565b60405180910390f35b34801561061c57600080fd5b50610637600480360381019061063291906130fe565b611033565b005b34801561064557600080fd5b50610660600480360381019061065b9190613083565b6111b4565b005b34801561066e57600080fd5b5061068960048036038101906106849190613269565b611216565b6040516106969190613dd0565b60405180910390f35b3480156106ab57600080fd5b506106c660048036038101906106c19190613176565b6112bd565b6040516106d39190614132565b60405180910390f35b3480156106e857600080fd5b5061070360048036038101906106fe919061319f565b6112e1565b005b34801561071157600080fd5b5061071a611315565b6040516107279190613db5565b60405180910390f35b34801561073c57600080fd5b5061075760048036038101906107529190612ff8565b611339565b6040516107649190613d9a565b60405180910390f35b60006107788261140b565b9050919050565b60606002805461078e9061436c565b80601f01602080910402602001604051908101604052809291908181526020018280546107ba9061436c565b80156108075780601f106107dc57610100808354040283529160200191610807565b820191906000526020600020905b8154815290600101906020018083116107ea57829003601f168201915b5050505050905090565b600061081c82611485565b61085b576040517f08c379a000000000000000000000000000000000000000000000000000000000815260040161085290614012565b60405180910390fd5b6006600083815260200190815260200160002060009054906101000a900473ffffffffffffffffffffffffffffffffffffffff169050919050565b60006108a182610d1d565b90508073ffffffffffffffffffffffffffffffffffffffff168373ffffffffffffffffffffffffffffffffffffffff161415610912576040517f08c379a000000000000000000000000000000000000000000000000000000000815260040161090990614072565b60405180910390fd5b8073ffffffffffffffffffffffffffffffffffffffff166109316114f1565b73ffffffffffffffffffffffffffffffffffffffff161480610960575061095f8161095a6114f1565b611339565b5b61099f576040517f08c379a000000000000000000000000000000000000000000000000000000000815260040161099690613f92565b60405180910390fd5b6109a983836114f9565b505050565b60006109ba600d6115b2565b60006109c6600d6115c8565b90506109d96109d36114f1565b826115d6565b8091505090565b6000600a80549050905090565b6109fe6109f86114f1565b826117a4565b610a3d576040517f08c379a0000000000000000000000000000000000000000000000000000000008152600401610a3490614092565b60405180910390fd5b610a48838383611882565b505050565b6000806000838152602001908152602001600020600101549050919050565b610a768282611ade565b610a9b81600160008581526020019081526020016000206113db90919063ffffffff16565b505050565b6000610aab83610dcf565b8210610aec576040517f08c379a0000000000000000000000000000000000000000000000000000000008152600401610ae390613e72565b60405180910390fd5b600860008473ffffffffffffffffffffffffffffffffffffffff1673ffffffffffffffffffffffffffffffffffffffff168152602001908152602001600020600083815260200190815260200160002054905092915050565b610b4f8282611b44565b610b748160016000858152602001908152602001600020611bc790919063ffffffff16565b505050565b610baa7f65d7a28e3265b37a6474929f336521b332c1681b933f6cb9f3376673440d862a610ba56114f1565b610f30565b610be9576040517f08c379a0000000000000000000000000000000000000000000000000000000008152600401610be0906140f2565b60405180910390fd5b610bf1611bf7565b565b610c0e838383604051806020016040528060008152506111b4565b505050565b610c24610c1e6114f1565b826117a4565b610c63576040517f08c379a0000000000000000000000000000000000000000000000000000000008152600401610c5a906140d2565b60405180910390fd5b610c6c81611c99565b50565b6000610c796109e0565b8210610cba576040517f08c379a0000000000000000000000000000000000000000000000000000000008152600401610cb1906140b2565b60405180910390fd5b600a8281548110610cf4577f4e487b7100000000000000000000000000000000000000000000000000000000600052603260045260246000fd5b90600052602060002001549050919050565b6000600c60009054906101000a900460ff16905090565b6000806004600084815260200190815260200160002060009054906101000a900473ffffffffffffffffffffffffffffffffffffffff169050600073ffffffffffffffffffffffffffffffffffffffff168173ffffffffffffffffffffffffffffffffffffffff161415610dc6576040517f08c379a0000000000000000000000000000000000000000000000000000000008152600401610dbd90613fd2565b60405180910390fd5b80915050919050565b60008073ffffffffffffffffffffffffffffffffffffffff168273ffffffffffffffffffffffffffffffffffffffff161415610e40576040517f08c379a0000000000000000000000000000000000000000000000000000000008152600401610e3790613fb2565b60405180910390fd5b600560008373ffffffffffffffffffffffffffffffffffffffff1673ffffffffffffffffffffffffffffffffffffffff168152602001908152602001600020549050919050565b610eb87f65d7a28e3265b37a6474929f336521b332c1681b933f6cb9f3376673440d862a610eb36114f1565b610f30565b610ef7576040517f08c379a0000000000000000000000000000000000000000000000000000000008152600401610eee90613ed2565b60405180910390fd5b610eff611daa565b565b6000610f288260016000868152602001908152602001600020611e4d90919063ffffffff16565b905092915050565b600080600084815260200190815260200160002060000160008373ffffffffffffffffffffffffffffffffffffffff1673ffffffffffffffffffffffffffffffffffffffff16815260200190815260200160002060009054906101000a900460ff16905092915050565b606060038054610fa99061436c565b80601f0160208091040260200160405190810160405280929190818152602001828054610fd59061436c565b80156110225780601f10610ff757610100808354040283529160200191611022565b820191906000526020600020905b81548152906001019060200180831161100557829003601f168201915b5050505050905090565b6000801b81565b61103b6114f1565b73ffffffffffffffffffffffffffffffffffffffff168273ffffffffffffffffffffffffffffffffffffffff1614156110a9576040517f08c379a00000000000000000000000000000000000000000000000000000000081526004016110a090613f12565b60405180910390fd5b80600760006110b66114f1565b73ffffffffffffffffffffffffffffffffffffffff1673ffffffffffffffffffffffffffffffffffffffff16815260200190815260200160002060008473ffffffffffffffffffffffffffffffffffffffff1673ffffffffffffffffffffffffffffffffffffffff16815260200190815260200160002060006101000a81548160ff0219169083151502179055508173ffffffffffffffffffffffffffffffffffffffff166111636114f1565b73ffffffffffffffffffffffffffffffffffffffff167f17307eab39ab6107e8899845ad3d59bd9653f200f220920489ca2b5937696c31836040516111a89190613d9a565b60405180910390a35050565b6111c56111bf6114f1565b836117a4565b611204576040517f08c379a00000000000000000000000000000000000000000000000000000000081526004016111fb90614092565b60405180910390fd5b61121084848484611e67565b50505050565b606061122182611485565b611260576040517f08c379a000000000000000000000000000000000000000000000000000000000815260040161125790614052565b60405180910390fd5b600061126a611ec3565b9050600081511161128a57604051806020016040528060008152506112b5565b8061129484611f55565b6040516020016112a5929190613d0f565b6040516020818303038152906040525b915050919050565b60006112da60016000848152602001908152602001600020612102565b9050919050565b6112eb8282612117565b6113108160016000858152602001908152602001600020611bc790919063ffffffff16565b505050565b7f65d7a28e3265b37a6474929f336521b332c1681b933f6cb9f3376673440d862a81565b6000600760008473ffffffffffffffffffffffffffffffffffffffff1673ffffffffffffffffffffffffffffffffffffffff16815260200190815260200160002060008373ffffffffffffffffffffffffffffffffffffffff1673ffffffffffffffffffffffffffffffffffffffff16815260200190815260200160002060009054906101000a900460ff16905092915050565b6113d7828261217d565b5050565b6000611403836000018373ffffffffffffffffffffffffffffffffffffffff1660001b61225d565b905092915050565b60007f780e9d63000000000000000000000000000000000000000000000000000000007bffffffffffffffffffffffffffffffffffffffffffffffffffffffff1916827bffffffffffffffffffffffffffffffffffffffffffffffffffffffff1916148061147e575061147d826122cd565b5b9050919050565b60008073ffffffffffffffffffffffffffffffffffffffff166004600084815260200190815260200160002060009054906101000a900473ffffffffffffffffffffffffffffffffffffffff1673ffffffffffffffffffffffffffffffffffffffff1614159050919050565b600033905090565b816006600083815260200190815260200160002060006101000a81548173ffffffffffffffffffffffffffffffffffffffff021916908373ffffffffffffffffffffffffffffffffffffffff160217905550808273ffffffffffffffffffffffffffffffffffffffff1661156c83610d1d565b73ffffffffffffffffffffffffffffffffffffffff167f8c5be1e5ebec7d5bd14f71427d1e84f3dd0314c0f7b2291e5b200ac8c7c3b92560405160405180910390a45050565b6001816000016000828254019250508190555050565b600081600001549050919050565b600073ffffffffffffffffffffffffffffffffffffffff168273ffffffffffffffffffffffffffffffffffffffff161415611646576040517f08c379a000000000000000000000000000000000000000000000000000000000815260040161163d90613ff2565b60405180910390fd5b61164f81611485565b1561168f576040517f08c379a000000000000000000000000000000000000000000000000000000000815260040161168690613eb2565b60405180910390fd5b61169b600083836123af565b6001600560008473ffffffffffffffffffffffffffffffffffffffff1673ffffffffffffffffffffffffffffffffffffffff16815260200190815260200160002060008282546116eb91906141f1565b92505081905550816004600083815260200190815260200160002060006101000a81548173ffffffffffffffffffffffffffffffffffffffff021916908373ffffffffffffffffffffffffffffffffffffffff160217905550808273ffffffffffffffffffffffffffffffffffffffff16600073ffffffffffffffffffffffffffffffffffffffff167fddf252ad1be2c89b69c2b068fc378daa952ba7f163c4a11628f55a4df523b3ef60405160405180910390a45050565b60006117af82611485565b6117ee576040517f08c379a00000000000000000000000000000000000000000000000000000000081526004016117e590613f32565b60405180910390fd5b60006117f983610d1d565b90508073ffffffffffffffffffffffffffffffffffffffff168473ffffffffffffffffffffffffffffffffffffffff16148061186857508373ffffffffffffffffffffffffffffffffffffffff1661185084610811565b73ffffffffffffffffffffffffffffffffffffffff16145b8061187957506118788185611339565b5b91505092915050565b8273ffffffffffffffffffffffffffffffffffffffff166118a282610d1d565b73ffffffffffffffffffffffffffffffffffffffff16146118f8576040517f08c379a00000000000000000000000000000000000000000000000000000000081526004016118ef90614032565b60405180910390fd5b600073ffffffffffffffffffffffffffffffffffffffff168273ffffffffffffffffffffffffffffffffffffffff161415611968576040517f08c379a000000000000000000000000000000000000000000000000000000000815260040161195f90613ef2565b60405180910390fd5b6119738383836123af565b61197e6000826114f9565b6001600560008573ffffffffffffffffffffffffffffffffffffffff1673ffffffffffffffffffffffffffffffffffffffff16815260200190815260200160002060008282546119ce9190614278565b925050819055506001600560008473ffffffffffffffffffffffffffffffffffffffff1673ffffffffffffffffffffffffffffffffffffffff1681526020019081526020016000206000828254611a2591906141f1565b92505081905550816004600083815260200190815260200160002060006101000a81548173ffffffffffffffffffffffffffffffffffffffff021916908373ffffffffffffffffffffffffffffffffffffffff160217905550808273ffffffffffffffffffffffffffffffffffffffff168473ffffffffffffffffffffffffffffffffffffffff167fddf252ad1be2c89b69c2b068fc378daa952ba7f163c4a11628f55a4df523b3ef60405160405180910390a4505050565b611af7611aea83610a4d565b611af26114f1565b610f30565b611b36576040517f08c379a0000000000000000000000000000000000000000000000000000000008152600401611b2d90613e32565b60405180910390fd5b611b40828261217d565b5050565b611b4c6114f1565b73ffffffffffffffffffffffffffffffffffffffff168173ffffffffffffffffffffffffffffffffffffffff1614611bb9576040517f08c379a0000000000000000000000000000000000000000000000000000000008152600401611bb090614112565b60405180910390fd5b611bc382826123bf565b5050565b6000611bef836000018373ffffffffffffffffffffffffffffffffffffffff1660001b6124a0565b905092915050565b611bff610d06565b611c3e576040517f08c379a0000000000000000000000000000000000000000000000000000000008152600401611c3590613e52565b60405180910390fd5b6000600c60006101000a81548160ff0219169083151502179055507f5db9ee0a495bf2e6ff9c91a7834c1ba4fdd244a5e8aa4e537bd38aeae4b073aa611c826114f1565b604051611c8f9190613d33565b60405180910390a1565b6000611ca482610d1d565b9050611cb2816000846123af565b611cbd6000836114f9565b6001600560008373ffffffffffffffffffffffffffffffffffffffff1673ffffffffffffffffffffffffffffffffffffffff1681526020019081526020016000206000828254611d0d9190614278565b925050819055506004600083815260200190815260200160002060006101000a81549073ffffffffffffffffffffffffffffffffffffffff021916905581600073ffffffffffffffffffffffffffffffffffffffff168273ffffffffffffffffffffffffffffffffffffffff167fddf252ad1be2c89b69c2b068fc378daa952ba7f163c4a11628f55a4df523b3ef60405160405180910390a45050565b611db2610d06565b15611df2576040517f08c379a0000000000000000000000000000000000000000000000000000000008152600401611de990613f72565b60405180910390fd5b6001600c60006101000a81548160ff0219169083151502179055507f62e78cea01bee320cd4e420270b5ea74000d11b0c9f74754ebdbfc544b05a258611e366114f1565b604051611e439190613d33565b60405180910390a1565b6000611e5c836000018361262a565b60001c905092915050565b611e72848484611882565b611e7e848484846126c4565b611ebd576040517f08c379a0000000000000000000000000000000000000000000000000000000008152600401611eb490613e92565b60405180910390fd5b50505050565b6060600e8054611ed29061436c565b80601f0160208091040260200160405190810160405280929190818152602001828054611efe9061436c565b8015611f4b5780601f10611f2057610100808354040283529160200191611f4b565b820191906000526020600020905b815481529060010190602001808311611f2e57829003601f168201915b5050505050905090565b60606000821415611f9d576040518060400160405280600181526020017f300000000000000000000000000000000000000000000000000000000000000081525090506120fd565b600082905060005b60008214611fcf578080611fb89061439e565b915050600a82611fc89190614247565b9150611fa5565b60008167ffffffffffffffff811115612011577f4e487b7100000000000000000000000000000000000000000000000000000000600052604160045260246000fd5b6040519080825280601f01601f1916602001820160405280156120435781602001600182028036833780820191505090505b5090505b600085146120f65760018261205c9190614278565b9150600a8561206b91906143e7565b603061207791906141f1565b60f81b8183815181106120b3577f4e487b7100000000000000000000000000000000000000000000000000000000600052603260045260246000fd5b60200101907effffffffffffffffffffffffffffffffffffffffffffffffffffffffffffff1916908160001a905350600a856120ef9190614247565b9450612047565b8093505050505b919050565b60006121108260000161285b565b9050919050565b61213061212383610a4d565b61212b6114f1565b610f30565b61216f576040517f08c379a000000000000000000000000000000000000000000000000000000000815260040161216690613f52565b60405180910390fd5b61217982826123bf565b5050565b6121878282610f30565b61225957600160008084815260200190815260200160002060000160008373ffffffffffffffffffffffffffffffffffffffff1673ffffffffffffffffffffffffffffffffffffffff16815260200190815260200160002060006101000a81548160ff0219169083151502179055506121fe6114f1565b73ffffffffffffffffffffffffffffffffffffffff168173ffffffffffffffffffffffffffffffffffffffff16837f2f8788117e7eff1d82e926ec794901d17c78024a50270940304540a733656f0d60405160405180910390a45b5050565b6000612269838361286c565b6122c25782600001829080600181540180825580915050600190039060005260206000200160009091909190915055826000018054905083600101600084815260200190815260200160002081905550600190506122c7565b600090505b92915050565b60007f80ac58cd000000000000000000000000000000000000000000000000000000007bffffffffffffffffffffffffffffffffffffffffffffffffffffffff1916827bffffffffffffffffffffffffffffffffffffffffffffffffffffffff1916148061239857507f5b5e139f000000000000000000000000000000000000000000000000000000007bffffffffffffffffffffffffffffffffffffffffffffffffffffffff1916827bffffffffffffffffffffffffffffffffffffffffffffffffffffffff1916145b806123a857506123a78261288f565b5b9050919050565b6123ba838383612909565b505050565b6123c98282610f30565b1561249c57600080600084815260200190815260200160002060000160008373ffffffffffffffffffffffffffffffffffffffff1673ffffffffffffffffffffffffffffffffffffffff16815260200190815260200160002060006101000a81548160ff0219169083151502179055506124416114f1565b73ffffffffffffffffffffffffffffffffffffffff168173ffffffffffffffffffffffffffffffffffffffff16837ff6391f5c32d9c69d2a47ea670b442974b53935d1edc7fd64eb21e047a839171b60405160405180910390a45b5050565b6000808360010160008481526020019081526020016000205490506000811461261e5760006001826124d29190614278565b90506000600186600001805490506124ea9190614278565b9050600086600001828154811061252a577f4e487b7100000000000000000000000000000000000000000000000000000000600052603260045260246000fd5b9060005260206000200154905080876000018481548110612574577f4e487b7100000000000000000000000000000000000000000000000000000000600052603260045260246000fd5b906000526020600020018190555060018361258f91906141f1565b87600101600083815260200190815260200160002081905550866000018054806125e2577f4e487b7100000000000000000000000000000000000000000000000000000000600052603160045260246000fd5b60019003818190600052602060002001600090559055866001016000878152602001908152602001600020600090556001945050505050612624565b60009150505b92915050565b600081836000018054905011612675576040517f08c379a000000000000000000000000000000000000000000000000000000000815260040161266c90613df2565b60405180910390fd5b8260000182815481106126b1577f4e487b7100000000000000000000000000000000000000000000000000000000600052603260045260246000fd5b9060005260206000200154905092915050565b60006126e58473ffffffffffffffffffffffffffffffffffffffff16612961565b1561284e578373ffffffffffffffffffffffffffffffffffffffff1663150b7a0261270e6114f1565b8786866040518563ffffffff1660e01b81526004016127309493929190613d4e565b602060405180830381600087803b15801561274a57600080fd5b505af192505050801561277b57506040513d601f19601f820116820180604052508101906127789190613240565b60015b6127fe573d80600081146127ab576040519150601f19603f3d011682016040523d82523d6000602084013e6127b0565b606091505b506000815114156127f6576040517f08c379a00000000000000000000000000000000000000000000000000000000081526004016127ed90613e92565b60405180910390fd5b805181602001fd5b63150b7a0260e01b7bffffffffffffffffffffffffffffffffffffffffffffffffffffffff1916817bffffffffffffffffffffffffffffffffffffffffffffffffffffffff191614915050612853565b600190505b949350505050565b600081600001805490509050919050565b600080836001016000848152602001908152602001600020541415905092915050565b60007f5a05180f000000000000000000000000000000000000000000000000000000007bffffffffffffffffffffffffffffffffffffffffffffffffffffffff1916827bffffffffffffffffffffffffffffffffffffffffffffffffffffffff19161480612902575061290182612974565b5b9050919050565b6129148383836129ee565b61291c610d06565b1561295c576040517f08c379a000000000000000000000000000000000000000000000000000000000815260040161295390613e12565b60405180910390fd5b505050565b600080823b905060008111915050919050565b60007f7965db0b000000000000000000000000000000000000000000000000000000007bffffffffffffffffffffffffffffffffffffffffffffffffffffffff1916827bffffffffffffffffffffffffffffffffffffffffffffffffffffffff191614806129e757506129e682612b02565b5b9050919050565b6129f9838383612b6c565b600073ffffffffffffffffffffffffffffffffffffffff168373ffffffffffffffffffffffffffffffffffffffff161415612a3c57612a3781612b71565b612a7b565b8173ffffffffffffffffffffffffffffffffffffffff168373ffffffffffffffffffffffffffffffffffffffff1614612a7a57612a798382612bba565b5b5b600073ffffffffffffffffffffffffffffffffffffffff168273ffffffffffffffffffffffffffffffffffffffff161415612abe57612ab981612d27565b612afd565b8273ffffffffffffffffffffffffffffffffffffffff168273ffffffffffffffffffffffffffffffffffffffff1614612afc57612afb8282612e6a565b5b5b505050565b60007f01ffc9a7000000000000000000000000000000000000000000000000000000007bffffffffffffffffffffffffffffffffffffffffffffffffffffffff1916827bffffffffffffffffffffffffffffffffffffffffffffffffffffffff1916149050919050565b505050565b600a80549050600b600083815260200190815260200160002081905550600a81908060018154018082558091505060019003906000526020600020016000909190919091505550565b60006001612bc784610dcf565b612bd19190614278565b9050600060096000848152602001908152602001600020549050818114612cb6576000600860008673ffffffffffffffffffffffffffffffffffffffff1673ffffffffffffffffffffffffffffffffffffffff168152602001908152602001600020600084815260200190815260200160002054905080600860008773ffffffffffffffffffffffffffffffffffffffff1673ffffffffffffffffffffffffffffffffffffffff168152602001908152602001600020600084815260200190815260200160002081905550816009600083815260200190815260200160002081905550505b6009600084815260200190815260200160002060009055600860008573ffffffffffffffffffffffffffffffffffffffff1673ffffffffffffffffffffffffffffffffffffffff16815260200190815260200160002060008381526020019081526020016000206000905550505050565b60006001600a80549050612d3b9190614278565b90506000600b60008481526020019081526020016000205490506000600a8381548110612d91577f4e487b7100000000000000000000000000000000000000000000000000000000600052603260045260246000fd5b9060005260206000200154905080600a8381548110612dd9577f4e487b7100000000000000000000000000000000000000000000000000000000600052603260045260246000fd5b906000526020600020018190555081600b600083815260200190815260200160002081905550600b600085815260200190815260200160002060009055600a805480612e4e577f4e487b7100000000000000000000000000000000000000000000000000000000600052603160045260246000fd5b6001900381819060005260206000200160009055905550505050565b6000612e7583610dcf565b905081600860008573ffffffffffffffffffffffffffffffffffffffff1673ffffffffffffffffffffffffffffffffffffffff168152602001908152602001600020600083815260200190815260200160002081905550806009600084815260200190815260200160002081905550505050565b6000612efc612ef78461417e565b61414d565b905082815260208101848484011115612f1457600080fd5b612f1f84828561432a565b509392505050565b600081359050612f36816144e5565b92915050565b600081359050612f4b816144fc565b92915050565b600081359050612f6081614513565b92915050565b600081359050612f758161452a565b92915050565b600081519050612f8a8161452a565b92915050565b600082601f830112612fa157600080fd5b8135612fb1848260208601612ee9565b91505092915050565b600081359050612fc981614541565b92915050565b600060208284031215612fe157600080fd5b6000612fef84828501612f27565b91505092915050565b6000806040838503121561300b57600080fd5b600061301985828601612f27565b925050602061302a85828601612f27565b9150509250929050565b60008060006060848603121561304957600080fd5b600061305786828701612f27565b935050602061306886828701612f27565b925050604061307986828701612fba565b9150509250925092565b6000806000806080858703121561309957600080fd5b60006130a787828801612f27565b94505060206130b887828801612f27565b93505060406130c987828801612fba565b925050606085013567ffffffffffffffff8111156130e657600080fd5b6130f287828801612f90565b91505092959194509250565b6000806040838503121561311157600080fd5b600061311f85828601612f27565b925050602061313085828601612f3c565b9150509250929050565b6000806040838503121561314d57600080fd5b600061315b85828601612f27565b925050602061316c85828601612fba565b9150509250929050565b60006020828403121561318857600080fd5b600061319684828501612f51565b91505092915050565b600080604083850312156131b257600080fd5b60006131c085828601612f51565b92505060206131d185828601612f27565b9150509250929050565b600080604083850312156131ee57600080fd5b60006131fc85828601612f51565b925050602061320d85828601612fba565b9150509250929050565b60006020828403121561322957600080fd5b600061323784828501612f66565b91505092915050565b60006020828403121561325257600080fd5b600061326084828501612f7b565b91505092915050565b60006020828403121561327b57600080fd5b600061328984828501612fba565b91505092915050565b61329b816142ac565b82525050565b6132aa816142be565b82525050565b6132b9816142ca565b82525050565b60006132ca826141ae565b6132d481856141c4565b93506132e4818560208601614339565b6132ed816144d4565b840191505092915050565b6000613303826141b9565b61330d81856141d5565b935061331d818560208601614339565b613326816144d4565b840191505092915050565b600061333c826141b9565b61334681856141e6565b9350613356818560208601614339565b80840191505092915050565b600061336f6022836141d5565b91507f456e756d657261626c655365743a20696e646578206f7574206f6620626f756e60008301527f64730000000000000000000000000000000000000000000000000000000000006020830152604082019050919050565b60006133d5602b836141d5565b91507f4552433732315061757361626c653a20746f6b656e207472616e73666572207760008301527f68696c65207061757365640000000000000000000000000000000000000000006020830152604082019050919050565b600061343b602f836141d5565b91507f416363657373436f6e74726f6c3a2073656e646572206d75737420626520616e60008301527f2061646d696e20746f206772616e7400000000000000000000000000000000006020830152604082019050919050565b60006134a16014836141d5565b91507f5061757361626c653a206e6f74207061757365640000000000000000000000006000830152602082019050919050565b60006134e1602b836141d5565b91507f455243373231456e756d657261626c653a206f776e657220696e646578206f7560008301527f74206f6620626f756e64730000000000000000000000000000000000000000006020830152604082019050919050565b60006135476032836141d5565b91507f4552433732313a207472616e7366657220746f206e6f6e20455243373231526560008301527f63656976657220696d706c656d656e74657200000000000000000000000000006020830152604082019050919050565b60006135ad601c836141d5565b91507f4552433732313a20746f6b656e20616c7265616479206d696e746564000000006000830152602082019050919050565b60006135ed603e836141d5565b91507f4552433732315072657365744d696e7465725061757365724175746f49643a2060008301527f6d75737420686176652070617573657220726f6c6520746f20706175736500006020830152604082019050919050565b60006136536024836141d5565b91507f4552433732313a207472616e7366657220746f20746865207a65726f2061646460008301527f72657373000000000000000000000000000000000000000000000000000000006020830152604082019050919050565b60006136b96019836141d5565b91507f4552433732313a20617070726f766520746f2063616c6c6572000000000000006000830152602082019050919050565b60006136f9602c836141d5565b91507f4552433732313a206f70657261746f7220717565727920666f72206e6f6e657860008301527f697374656e7420746f6b656e00000000000000000000000000000000000000006020830152604082019050919050565b600061375f6030836141d5565b91507f416363657373436f6e74726f6c3a2073656e646572206d75737420626520616e60008301527f2061646d696e20746f207265766f6b65000000000000000000000000000000006020830152604082019050919050565b60006137c56010836141d5565b91507f5061757361626c653a20706175736564000000000000000000000000000000006000830152602082019050919050565b60006138056038836141d5565b91507f4552433732313a20617070726f76652063616c6c6572206973206e6f74206f7760008301527f6e6572206e6f7220617070726f76656420666f7220616c6c00000000000000006020830152604082019050919050565b600061386b602a836141d5565b91507f4552433732313a2062616c616e636520717565727920666f7220746865207a6560008301527f726f2061646472657373000000000000000000000000000000000000000000006020830152604082019050919050565b60006138d16029836141d5565b91507f4552433732313a206f776e657220717565727920666f72206e6f6e657869737460008301527f656e7420746f6b656e00000000000000000000000000000000000000000000006020830152604082019050919050565b60006139376020836141d5565b91507f4552433732313a206d696e7420746f20746865207a65726f20616464726573736000830152602082019050919050565b6000613977602c836141d5565b91507f4552433732313a20617070726f76656420717565727920666f72206e6f6e657860008301527f697374656e7420746f6b656e00000000000000000000000000000000000000006020830152604082019050919050565b60006139dd6029836141d5565b91507f4552433732313a207472616e73666572206f6620746f6b656e2074686174206960008301527f73206e6f74206f776e00000000000000000000000000000000000000000000006020830152604082019050919050565b6000613a43602f836141d5565b91507f4552433732314d657461646174613a2055524920717565727920666f72206e6f60008301527f6e6578697374656e7420746f6b656e00000000000000000000000000000000006020830152604082019050919050565b6000613aa96021836141d5565b91507f4552433732313a20617070726f76616c20746f2063757272656e74206f776e6560008301527f72000000000000000000000000000000000000000000000000000000000000006020830152604082019050919050565b6000613b0f6031836141d5565b91507f4552433732313a207472616e736665722063616c6c6572206973206e6f74206f60008301527f776e6572206e6f7220617070726f7665640000000000000000000000000000006020830152604082019050919050565b6000613b75602c836141d5565b91507f455243373231456e756d657261626c653a20676c6f62616c20696e646578206f60008301527f7574206f6620626f756e647300000000000000000000000000000000000000006020830152604082019050919050565b6000613bdb6030836141d5565b91507f4552433732314275726e61626c653a2063616c6c6572206973206e6f74206f7760008301527f6e6572206e6f7220617070726f766564000000000000000000000000000000006020830152604082019050919050565b6000613c416040836141d5565b91507f4552433732315072657365744d696e7465725061757365724175746f49643a2060008301527f6d75737420686176652070617573657220726f6c6520746f20756e70617573656020830152604082019050919050565b6000613ca7602f836141d5565b91507f416363657373436f6e74726f6c3a2063616e206f6e6c792072656e6f756e636560008301527f20726f6c657320666f722073656c6600000000000000000000000000000000006020830152604082019050919050565b613d0981614320565b82525050565b6000613d1b8285613331565b9150613d278284613331565b91508190509392505050565b6000602082019050613d486000830184613292565b92915050565b6000608082019050613d636000830187613292565b613d706020830186613292565b613d7d6040830185613d00565b8181036060830152613d8f81846132bf565b905095945050505050565b6000602082019050613daf60008301846132a1565b92915050565b6000602082019050613dca60008301846132b0565b92915050565b60006020820190508181036000830152613dea81846132f8565b905092915050565b60006020820190508181036000830152613e0b81613362565b9050919050565b60006020820190508181036000830152613e2b816133c8565b9050919050565b60006020820190508181036000830152613e4b8161342e565b9050919050565b60006020820190508181036000830152613e6b81613494565b9050919050565b60006020820190508181036000830152613e8b816134d4565b9050919050565b60006020820190508181036000830152613eab8161353a565b9050919050565b60006020820190508181036000830152613ecb816135a0565b9050919050565b60006020820190508181036000830152613eeb816135e0565b9050919050565b60006020820190508181036000830152613f0b81613646565b9050919050565b60006020820190508181036000830152613f2b816136ac565b9050919050565b60006020820190508181036000830152613f4b816136ec565b9050919050565b60006020820190508181036000830152613f6b81613752565b9050919050565b60006020820190508181036000830152613f8b816137b8565b9050919050565b60006020820190508181036000830152613fab816137f8565b9050919050565b60006020820190508181036000830152613fcb8161385e565b9050919050565b60006020820190508181036000830152613feb816138c4565b9050919050565b6000602082019050818103600083015261400b8161392a565b9050919050565b6000602082019050818103600083015261402b8161396a565b9050919050565b6000602082019050818103600083015261404b816139d0565b9050919050565b6000602082019050818103600083015261406b81613a36565b9050919050565b6000602082019050818103600083015261408b81613a9c565b9050919050565b600060208201905081810360008301526140ab81613b02565b9050919050565b600060208201905081810360008301526140cb81613b68565b9050919050565b600060208201905081810360008301526140eb81613bce565b9050919050565b6000602082019050818103600083015261410b81613c34565b9050919050565b6000602082019050818103600083015261412b81613c9a565b9050919050565b60006020820190506141476000830184613d00565b92915050565b6000604051905081810181811067ffffffffffffffff82111715614174576141736144a5565b5b8060405250919050565b600067ffffffffffffffff821115614199576141986144a5565b5b601f19601f8301169050602081019050919050565b600081519050919050565b600081519050919050565b600082825260208201905092915050565b600082825260208201905092915050565b600081905092915050565b60006141fc82614320565b915061420783614320565b9250827fffffffffffffffffffffffffffffffffffffffffffffffffffffffffffffffff0382111561423c5761423b614418565b5b828201905092915050565b600061425282614320565b915061425d83614320565b92508261426d5761426c614447565b5b828204905092915050565b600061428382614320565b915061428e83614320565b9250828210156142a1576142a0614418565b5b828203905092915050565b60006142b782614300565b9050919050565b60008115159050919050565b6000819050919050565b60007fffffffff0000000000000000000000000000000000000000000000000000000082169050919050565b600073ffffffffffffffffffffffffffffffffffffffff82169050919050565b6000819050919050565b82818337600083830152505050565b60005b8381101561435757808201518184015260208101905061433c565b83811115614366576000848401525b50505050565b6000600282049050600182168061438457607f821691505b6020821081141561439857614397614476565b5b50919050565b60006143a982614320565b91507fffffffffffffffffffffffffffffffffffffffffffffffffffffffffffffffff8214156143dc576143db614418565b5b600182019050919050565b60006143f282614320565b91506143fd83614320565b92508261440d5761440c614447565b5b828206905092915050565b7f4e487b7100000000000000000000000000000000000000000000000000000000600052601160045260246000fd5b7f4e487b7100000000000000000000000000000000000000000000000000000000600052601260045260246000fd5b7f4e487b7100000000000000000000000000000000000000000000000000000000600052602260045260246000fd5b7f4e487b7100000000000000000000000000000000000000000000000000000000600052604160045260246000fd5b6000601f19601f8301169050919050565b6144ee816142ac565b81146144f957600080fd5b50565b614505816142be565b811461451057600080fd5b50565b61451c816142ca565b811461452757600080fd5b50565b614533816142d4565b811461453e57600080fd5b50565b61454a81614320565b811461455557600080fd5b5056fea26469706673582212207d759297e342db1af4bcb3b7a4b88cee65d17d5e55236b415b4ff440e94d030364736f6c63430008000033",
  "linkReferences": {},
  "deployedLinkReferences": {},
  "address": "0x6836fEFE558b61d6541dBE4A8F1fEABf6D2fd9e1"
}