{
  "_format": "hh-sol-artifact-1",
  "contractName": "Token",
  "sourceName": "contracts/Token.sol",
  "abi": [
    {
      "inputs": [
        {
          "internalType": "string",
          "name": "name",
          "type": "string"
        },
        {
          "internalType": "string",
          "name": "symbol",
          "type": "string"
        },
        {
          "internalType": "string",
          "name": "baseTokenURI",
          "type": "string"
        }
      ],
      "stateMutability": "nonpayable",
      "type": "constructor"
    },
    {
      "anonymous": false,
      "inputs": [
        {
          "indexed": true,
          "internalType": "address",
          "name": "owner",
          "type": "address"
        },
        {
          "indexed": true,
          "internalType": "address",
          "name": "approved",
          "type": "address"
        },
        {
          "indexed": true,
          "internalType": "uint256",
          "name": "tokenId",
          "type": "uint256"
        }
      ],
      "name": "Approval",
      "type": "event"
    },
    {
      "anonymous": false,
      "inputs": [
        {
          "indexed": true,
          "internalType": "address",
          "name": "owner",
          "type": "address"
        },
        {
          "indexed": true,
          "internalType": "address",
          "name": "operator",
          "type": "address"
        },
        {
          "indexed": false,
          "internalType": "bool",
          "name": "approved",
          "type": "bool"
        }
      ],
      "name": "ApprovalForAll",
      "type": "event"
    },
    {
      "anonymous": false,
      "inputs": [
        {
          "indexed": false,
          "internalType": "address",
          "name": "account",
          "type": "address"
        }
      ],
      "name": "Paused",
      "type": "event"
    },
    {
      "anonymous": false,
      "inputs": [
        {
          "indexed": true,
          "internalType": "bytes32",
          "name": "role",
          "type": "bytes32"
        },
        {
          "indexed": true,
          "internalType": "bytes32",
          "name": "previousAdminRole",
          "type": "bytes32"
        },
        {
          "indexed": true,
          "internalType": "bytes32",
          "name": "newAdminRole",
          "type": "bytes32"
        }
      ],
      "name": "RoleAdminChanged",
      "type": "event"
    },
    {
      "anonymous": false,
      "inputs": [
        {
          "indexed": true,
          "internalType": "bytes32",
          "name": "role",
          "type": "bytes32"
        },
        {
          "indexed": true,
          "internalType": "address",
          "name": "account",
          "type": "address"
        },
        {
          "indexed": true,
          "internalType": "address",
          "name": "sender",
          "type": "address"
        }
      ],
      "name": "RoleGranted",
      "type": "event"
    },
    {
      "anonymous": false,
      "inputs": [
        {
          "indexed": true,
          "internalType": "bytes32",
          "name": "role",
          "type": "bytes32"
        },
        {
          "indexed": true,
          "internalType": "address",
          "name": "account",
          "type": "address"
        },
        {
          "indexed": true,
          "internalType": "address",
          "name": "sender",
          "type": "address"
        }
      ],
      "name": "RoleRevoked",
      "type": "event"
    },
    {
      "anonymous": false,
      "inputs": [
        {
          "indexed": true,
          "internalType": "address",
          "name": "from",
          "type": "address"
        },
        {
          "indexed": true,
          "internalType": "address",
          "name": "to",
          "type": "address"
        },
        {
          "indexed": true,
          "internalType": "uint256",
          "name": "tokenId",
          "type": "uint256"
        }
      ],
      "name": "Transfer",
      "type": "event"
    },
    {
      "anonymous": false,
      "inputs": [
        {
          "indexed": false,
          "internalType": "address",
          "name": "account",
          "type": "address"
        }
      ],
      "name": "Unpaused",
      "type": "event"
    },
    {
      "inputs": [],
      "name": "DEFAULT_ADMIN_ROLE",
      "outputs": [
        {
          "internalType": "bytes32",
          "name": "",
          "type": "bytes32"
        }
      ],
      "stateMutability": "view",
      "type": "function"
    },
    {
      "inputs": [],
      "name": "PAUSER_ROLE",
      "outputs": [
        {
          "internalType": "bytes32",
          "name": "",
          "type": "bytes32"
        }
      ],
      "stateMutability": "view",
      "type": "function"
    },
    {
      "inputs": [
        {
          "internalType": "address",
          "name": "to",
          "type": "address"
        },
        {
          "internalType": "uint256",
          "name": "tokenId",
          "type": "uint256"
        }
      ],
      "name": "approve",
      "outputs": [],
      "stateMutability": "nonpayable",
      "type": "function"
    },
    {
      "inputs": [
        {
          "internalType": "address",
          "name": "owner",
          "type": "address"
        }
      ],
      "name": "balanceOf",
      "outputs": [
        {
          "internalType": "uint256",
          "name": "",
          "type": "uint256"
        }
      ],
      "stateMutability": "view",
      "type": "function"
    },
    {
      "inputs": [
        {
          "internalType": "uint256",
          "name": "tokenId",
          "type": "uint256"
        }
      ],
      "name": "burn",
      "outputs": [],
      "stateMutability": "nonpayable",
      "type": "function"
    },
    {
      "inputs": [
        {
          "internalType": "uint256",
          "name": "tokenId",
          "type": "uint256"
        }
      ],
      "name": "getApproved",
      "outputs": [
        {
          "internalType": "address",
          "name": "",
          "type": "address"
        }
      ],
      "stateMutability": "view",
      "type": "function"
    },
    {
      "inputs": [
        {
          "internalType": "bytes32",
          "name": "role",
          "type": "bytes32"
        }
      ],
      "name": "getRoleAdmin",
      "outputs": [
        {
          "internalType": "bytes32",
          "name": "",
          "type": "bytes32"
        }
      ],
      "stateMutability": "view",
      "type": "function"
    },
    {
      "inputs": [
        {
          "internalType": "bytes32",
          "name": "role",
          "type": "bytes32"
        },
        {
          "internalType": "uint256",
          "name": "index",
          "type": "uint256"
        }
      ],
      "name": "getRoleMember",
      "outputs": [
        {
          "internalType": "address",
          "name": "",
          "type": "address"
        }
      ],
      "stateMutability": "view",
      "type": "function"
    },
    {
      "inputs": [
        {
          "internalType": "bytes32",
          "name": "role",
          "type": "bytes32"
        }
      ],
      "name": "getRoleMemberCount",
      "outputs": [
        {
          "internalType": "uint256",
          "name": "",
          "type": "uint256"
        }
      ],
      "stateMutability": "view",
      "type": "function"
    },
    {
      "inputs": [
        {
          "internalType": "bytes32",
          "name": "role",
          "type": "bytes32"
        },
        {
          "internalType": "address",
          "name": "account",
          "type": "address"
        }
      ],
      "name": "grantRole",
      "outputs": [],
      "stateMutability": "nonpayable",
      "type": "function"
    },
    {
      "inputs": [
        {
          "internalType": "bytes32",
          "name": "role",
          "type": "bytes32"
        },
        {
          "internalType": "address",
          "name": "account",
          "type": "address"
        }
      ],
      "name": "hasRole",
      "outputs": [
        {
          "internalType": "bool",
          "name": "",
          "type": "bool"
        }
      ],
      "stateMutability": "view",
      "type": "function"
    },
    {
      "inputs": [
        {
          "internalType": "address",
          "name": "owner",
          "type": "address"
        },
        {
          "internalType": "address",
          "name": "operator",
          "type": "address"
        }
      ],
      "name": "isApprovedForAll",
      "outputs": [
        {
          "internalType": "bool",
          "name": "",
          "type": "bool"
        }
      ],
      "stateMutability": "view",
      "type": "function"
    },
    {
      "inputs": [],
      "name": "mint",
      "outputs": [
        {
          "internalType": "uint256",
          "name": "",
          "type": "uint256"
        }
      ],
      "stateMutability": "payable",
      "type": "function"
    },
    {
      "inputs": [],
      "name": "name",
      "outputs": [
        {
          "internalType": "string",
          "name": "",
          "type": "string"
        }
      ],
      "stateMutability": "view",
      "type": "function"
    },
    {
      "inputs": [
        {
          "internalType": "uint256",
          "name": "tokenId",
          "type": "uint256"
        }
      ],
      "name": "ownerOf",
      "outputs": [
        {
          "internalType": "address",
          "name": "",
          "type": "address"
        }
      ],
      "stateMutability": "view",
      "type": "function"
    },
    {
      "inputs": [],
      "name": "pause",
      "outputs": [],
      "stateMutability": "nonpayable",
      "type": "function"
    },
    {
      "inputs": [],
      "name": "paused",
      "outputs": [
        {
          "internalType": "bool",
          "name": "",
          "type": "bool"
        }
      ],
      "stateMutability": "view",
      "type": "function"
    },
    {
      "inputs": [
        {
          "internalType": "bytes32",
          "name": "role",
          "type": "bytes32"
        },
        {
          "internalType": "address",
          "name": "account",
          "type": "address"
        }
      ],
      "name": "renounceRole",
      "outputs": [],
      "stateMutability": "nonpayable",
      "type": "function"
    },
    {
      "inputs": [
        {
          "internalType": "bytes32",
          "name": "role",
          "type": "bytes32"
        },
        {
          "internalType": "address",
          "name": "account",
          "type": "address"
        }
      ],
      "name": "revokeRole",
      "outputs": [],
      "stateMutability": "nonpayable",
      "type": "function"
    },
    {
      "inputs": [
        {
          "internalType": "address",
          "name": "from",
          "type": "address"
        },
        {
          "internalType": "address",
          "name": "to",
          "type": "address"
        },
        {
          "internalType": "uint256",
          "name": "tokenId",
          "type": "uint256"
        }
      ],
      "name": "safeTransferFrom",
      "outputs": [],
      "stateMutability": "nonpayable",
      "type": "function"
    },
    {
      "inputs": [
        {
          "internalType": "address",
          "name": "from",
          "type": "address"
        },
        {
          "internalType": "address",
          "name": "to",
          "type": "address"
        },
        {
          "internalType": "uint256",
          "name": "tokenId",
          "type": "uint256"
        },
        {
          "internalType": "bytes",
          "name": "_data",
          "type": "bytes"
        }
      ],
      "name": "safeTransferFrom",
      "outputs": [],
      "stateMutability": "nonpayable",
      "type": "function"
    },
    {
      "inputs": [
        {
          "internalType": "address",
          "name": "operator",
          "type": "address"
        },
        {
          "internalType": "bool",
          "name": "approved",
          "type": "bool"
        }
      ],
      "name": "setApprovalForAll",
      "outputs": [],
      "stateMutability": "nonpayable",
      "type": "function"
    },
    {
      "inputs": [
        {
          "internalType": "bytes4",
          "name": "interfaceId",
          "type": "bytes4"
        }
      ],
      "name": "supportsInterface",
      "outputs": [
        {
          "internalType": "bool",
          "name": "",
          "type": "bool"
        }
      ],
      "stateMutability": "view",
      "type": "function"
    },
    {
      "inputs": [],
      "name": "symbol",
      "outputs": [
        {
          "internalType": "string",
          "name": "",
          "type": "string"
        }
      ],
      "stateMutability": "view",
      "type": "function"
    },
    {
      "inputs": [
        {
          "internalType": "uint256",
          "name": "index",
          "type": "uint256"
        }
      ],
      "name": "tokenByIndex",
      "outputs": [
        {
          "internalType": "uint256",
          "name": "",
          "type": "uint256"
        }
      ],
      "stateMutability": "view",
      "type": "function"
    },
    {
      "inputs": [
        {
          "internalType": "address",
          "name": "owner",
          "type": "address"
        },
        {
          "internalType": "uint256",
          "name": "index",
          "type": "uint256"
        }
      ],
      "name": "tokenOfOwnerByIndex",
      "outputs": [
        {
          "internalType": "uint256",
          "name": "",
          "type": "uint256"
        }
      ],
      "stateMutability": "view",
      "type": "function"
    },
    {
      "inputs": [
        {
          "internalType": "uint256",
          "name": "tokenId",
          "type": "uint256"
        }
      ],
      "name": "tokenURI",
      "outputs": [
        {
          "internalType": "string",
          "name": "",
          "type": "string"
        }
      ],
      "stateMutability": "view",
      "type": "function"
    },
    {
      "inputs": [],
      "name": "totalSupply",
      "outputs": [
        {
          "internalType": "uint256",
          "name": "",
          "type": "uint256"
        }
      ],
      "stateMutability": "view",
      "type": "function"
    },
    {
      "inputs": [
        {
          "internalType": "address",
          "name": "from",
          "type": "address"
        },
        {
          "internalType": "address",
          "name": "to",
          "type": "address"
        },
        {
          "internalType": "uint256",
          "name": "tokenId",
          "type": "uint256"
        }
      ],
      "name": "transferFrom",
      "outputs": [],
      "stateMutability": "nonpayable",
      "type": "function"
    },
    {
      "inputs": [],
      "name": "unpause",
      "outputs": [],
      "stateMutability": "nonpayable",
      "type": "function"
    },
    {
      "inputs": [],
      "name": "withdraw",
      "outputs": [],
      "stateMutability": "nonpayable",
      "type": "function"
    }
  ],
  "bytecode": "0x60806040523480156200001157600080fd5b5060405162004fb538038062004fb58339818101604052810190620000379190620004c7565b8282816002908051906020019062000051929190620003a5565b5080600390805190602001906200006a929190620003a5565b5050506000600c60006101000a81548160ff02191690831515021790555080600e9080519060200190620000a0929190620003a5565b50620000c56000801b620000b96200010f60201b60201c565b6200011760201b60201c565b620001067f65d7a28e3265b37a6474929f336521b332c1681b933f6cb9f3376673440d862a620000fa6200010f60201b60201c565b6200011760201b60201c565b50505062000699565b600033905090565b6200012e82826200015f60201b620015a51760201c565b6200015a81600160008581526020019081526020016000206200017560201b620015b31790919060201c565b505050565b620001718282620001ad60201b60201c565b5050565b6000620001a5836000018373ffffffffffffffffffffffffffffffffffffffff1660001b6200029e60201b60201c565b905092915050565b620001bf82826200031860201b60201c565b6200029a57600160008084815260200190815260200160002060000160008373ffffffffffffffffffffffffffffffffffffffff1673ffffffffffffffffffffffffffffffffffffffff16815260200190815260200160002060006101000a81548160ff0219169083151502179055506200023f6200010f60201b60201c565b73ffffffffffffffffffffffffffffffffffffffff168173ffffffffffffffffffffffffffffffffffffffff16837f2f8788117e7eff1d82e926ec794901d17c78024a50270940304540a733656f0d60405160405180910390a45b5050565b6000620002b283836200038260201b60201c565b6200030d57826000018290806001815401808255809150506001900390600052602060002001600090919091909150558260000180549050836001016000848152602001908152602001600020819055506001905062000312565b600090505b92915050565b600080600084815260200190815260200160002060000160008373ffffffffffffffffffffffffffffffffffffffff1673ffffffffffffffffffffffffffffffffffffffff16815260200190815260200160002060009054906101000a900460ff16905092915050565b600080836001016000848152602001908152602001600020541415905092915050565b828054620003b39062000605565b90600052602060002090601f016020900481019282620003d7576000855562000423565b82601f10620003f257805160ff191683800117855562000423565b8280016001018555821562000423579182015b828111156200042257825182559160200191906001019062000405565b5b50905062000432919062000436565b5090565b5b808211156200045157600081600090555060010162000437565b5090565b60006200046c62000466846200059c565b62000568565b9050828152602081018484840111156200048557600080fd5b62000492848285620005cf565b509392505050565b600082601f830112620004ac57600080fd5b8151620004be84826020860162000455565b91505092915050565b600080600060608486031215620004dd57600080fd5b600084015167ffffffffffffffff811115620004f857600080fd5b62000506868287016200049a565b935050602084015167ffffffffffffffff8111156200052457600080fd5b62000532868287016200049a565b925050604084015167ffffffffffffffff8111156200055057600080fd5b6200055e868287016200049a565b9150509250925092565b6000604051905081810181811067ffffffffffffffff821117156200059257620005916200066a565b5b8060405250919050565b600067ffffffffffffffff821115620005ba57620005b96200066a565b5b601f19601f8301169050602081019050919050565b60005b83811015620005ef578082015181840152602081019050620005d2565b83811115620005ff576000848401525b50505050565b600060028204905060018216806200061e57607f821691505b602082108114156200063557620006346200063b565b5b50919050565b7f4e487b7100000000000000000000000000000000000000000000000000000000600052602260045260246000fd5b7f4e487b7100000000000000000000000000000000000000000000000000000000600052604160045260246000fd5b61490c80620006a96000396000f3fe6080604052600436106101d85760003560e01c80634f6ccce711610102578063a217fddf11610095578063ca15c87311610064578063ca15c873146106c1578063d547741f146106fe578063e63ab1e914610727578063e985e9c514610752576101d8565b8063a217fddf14610607578063a22cb46514610632578063b88d4fde1461065b578063c87b56dd14610684576101d8565b80638456cb59116100d15780638456cb591461054b5780639010d07c1461056257806391d148541461059f57806395d89b41146105dc576101d8565b80634f6ccce7146104695780635c975abb146104a65780636352211e146104d157806370a082311461050e576101d8565b8063248a9ca31161017a5780633ccfd60b116101495780633ccfd60b146103e95780633f4ba83a1461040057806342842e0e1461041757806342966c6814610440576101d8565b8063248a9ca31461031d5780632f2ff15d1461035a5780632f745c591461038357806336568abe146103c0576101d8565b8063095ea7b3116101b6578063095ea7b3146102825780631249c58b146102ab57806318160ddd146102c957806323b872dd146102f4576101d8565b806301ffc9a7146101dd57806306fdde031461021a578063081812fc14610245575b600080fd5b3480156101e957600080fd5b5061020460048036038101906101ff91906133ef565b61078f565b60405161021191906140ad565b60405180910390f35b34801561022657600080fd5b5061022f6107a1565b60405161023c91906140e3565b60405180910390f35b34801561025157600080fd5b5061026c60048036038101906102679190613441565b610833565b6040516102799190614046565b60405180910390f35b34801561028e57600080fd5b506102a960048036038101906102a49190613312565b6108b8565b005b6102b36109d0565b6040516102c091906144a5565b60405180910390f35b3480156102d557600080fd5b506102de610aa9565b6040516102eb91906144a5565b60405180910390f35b34801561030057600080fd5b5061031b6004803603810190610316919061320c565b610ab6565b005b34801561032957600080fd5b50610344600480360381019061033f919061334e565b610b16565b60405161035191906140c8565b60405180910390f35b34801561036657600080fd5b50610381600480360381019061037c9190613377565b610b35565b005b34801561038f57600080fd5b506103aa60048036038101906103a59190613312565b610b69565b6040516103b791906144a5565b60405180910390f35b3480156103cc57600080fd5b506103e760048036038101906103e29190613377565b610c0e565b005b3480156103f557600080fd5b506103fe610c42565b005b34801561040c57600080fd5b50610415610d51565b005b34801561042357600080fd5b5061043e6004803603810190610439919061320c565b610dcb565b005b34801561044c57600080fd5b5061046760048036038101906104629190613441565b610deb565b005b34801561047557600080fd5b50610490600480360381019061048b9190613441565b610e47565b60405161049d91906144a5565b60405180910390f35b3480156104b257600080fd5b506104bb610ede565b6040516104c891906140ad565b60405180910390f35b3480156104dd57600080fd5b506104f860048036038101906104f39190613441565b610ef5565b6040516105059190614046565b60405180910390f35b34801561051a57600080fd5b50610535600480360381019061053091906131a7565b610fa7565b60405161054291906144a5565b60405180910390f35b34801561055757600080fd5b5061056061105f565b005b34801561056e57600080fd5b50610589600480360381019061058491906133b3565b6110d9565b6040516105969190614046565b60405180910390f35b3480156105ab57600080fd5b506105c660048036038101906105c19190613377565b611108565b6040516105d391906140ad565b60405180910390f35b3480156105e857600080fd5b506105f1611172565b6040516105fe91906140e3565b60405180910390f35b34801561061357600080fd5b5061061c611204565b60405161062991906140c8565b60405180910390f35b34801561063e57600080fd5b50610659600480360381019061065491906132d6565b61120b565b005b34801561066757600080fd5b50610682600480360381019061067d919061325b565b61138c565b005b34801561069057600080fd5b506106ab60048036038101906106a69190613441565b6113ee565b6040516106b891906140e3565b60405180910390f35b3480156106cd57600080fd5b506106e860048036038101906106e3919061334e565b611495565b6040516106f591906144a5565b60405180910390f35b34801561070a57600080fd5b5061072560048036038101906107209190613377565b6114b9565b005b34801561073357600080fd5b5061073c6114ed565b60405161074991906140c8565b60405180910390f35b34801561075e57600080fd5b50610779600480360381019061077491906131d0565b611511565b60405161078691906140ad565b60405180910390f35b600061079a826115e3565b9050919050565b6060600280546107b0906146ea565b80601f01602080910402602001604051908101604052809291908181526020018280546107dc906146ea565b80156108295780601f106107fe57610100808354040283529160200191610829565b820191906000526020600020905b81548152906001019060200180831161080c57829003601f168201915b5050505050905090565b600061083e8261165d565b61087d576040517f08c379a0000000000000000000000000000000000000000000000000000000008152600401610874906143a5565b60405180910390fd5b6006600083815260200190815260200160002060009054906101000a900473ffffffffffffffffffffffffffffffffffffffff169050919050565b60006108c382610ef5565b90508073ffffffffffffffffffffffffffffffffffffffff168373ffffffffffffffffffffffffffffffffffffffff161415610934576040517f08c379a000000000000000000000000000000000000000000000000000000000815260040161092b90614405565b60405180910390fd5b8073ffffffffffffffffffffffffffffffffffffffff166109536116c9565b73ffffffffffffffffffffffffffffffffffffffff16148061098257506109818161097c6116c9565b611511565b5b6109c1576040517f08c379a00000000000000000000000000000000000000000000000000000000081526004016109b890614305565b60405180910390fd5b6109cb83836116d1565b505050565b60008060006109dd610aa9565b9050601f8110156109f757662386f26fc100009150610a35565b603d811015610a0f5766470de4df8200009150610a34565b605b811015610a275766b1a2bc2ec500009150610a33565b67016345785d8a000091505b5b5b813414610a77576040517f08c379a0000000000000000000000000000000000000000000000000000000008152600401610a6e906141c5565b60405180910390fd5b610a81600d61178a565b6000610a8d600d6117a0565b9050610aa0610a9a6116c9565b826117ae565b80935050505090565b6000600a80549050905090565b610ac7610ac16116c9565b8261197c565b610b06576040517f08c379a0000000000000000000000000000000000000000000000000000000008152600401610afd90614425565b60405180910390fd5b610b11838383611a5a565b505050565b6000806000838152602001908152602001600020600101549050919050565b610b3f8282611cb6565b610b6481600160008581526020019081526020016000206115b390919063ffffffff16565b505050565b6000610b7483610fa7565b8210610bb5576040517f08c379a0000000000000000000000000000000000000000000000000000000008152600401610bac906141e5565b60405180910390fd5b600860008473ffffffffffffffffffffffffffffffffffffffff1673ffffffffffffffffffffffffffffffffffffffff168152602001908152602001600020600083815260200190815260200160002054905092915050565b610c188282611d1c565b610c3d8160016000858152602001908152602001600020611d9f90919063ffffffff16565b505050565b610c566000801b610c516116c9565b611108565b610c95576040517f08c379a0000000000000000000000000000000000000000000000000000000008152600401610c8c90614185565b60405180910390fd5b60004790506000610ca46116c9565b73ffffffffffffffffffffffffffffffffffffffff1682604051610cc790614031565b60006040518083038185875af1925050503d8060008114610d04576040519150601f19603f3d011682016040523d82523d6000602084013e610d09565b606091505b5050905080610d4d576040517f08c379a0000000000000000000000000000000000000000000000000000000008152600401610d4490614245565b60405180910390fd5b5050565b610d827f65d7a28e3265b37a6474929f336521b332c1681b933f6cb9f3376673440d862a610d7d6116c9565b611108565b610dc1576040517f08c379a0000000000000000000000000000000000000000000000000000000008152600401610db8906141a5565b60405180910390fd5b610dc9611dcf565b565b610de68383836040518060200160405280600081525061138c565b505050565b610dfc610df66116c9565b8261197c565b610e3b576040517f08c379a0000000000000000000000000000000000000000000000000000000008152600401610e3290614465565b60405180910390fd5b610e4481611e71565b50565b6000610e51610aa9565b8210610e92576040517f08c379a0000000000000000000000000000000000000000000000000000000008152600401610e8990614445565b60405180910390fd5b600a8281548110610ecc577f4e487b7100000000000000000000000000000000000000000000000000000000600052603260045260246000fd5b90600052602060002001549050919050565b6000600c60009054906101000a900460ff16905090565b6000806004600084815260200190815260200160002060009054906101000a900473ffffffffffffffffffffffffffffffffffffffff169050600073ffffffffffffffffffffffffffffffffffffffff168173ffffffffffffffffffffffffffffffffffffffff161415610f9e576040517f08c379a0000000000000000000000000000000000000000000000000000000008152600401610f9590614345565b60405180910390fd5b80915050919050565b60008073ffffffffffffffffffffffffffffffffffffffff168273ffffffffffffffffffffffffffffffffffffffff161415611018576040517f08c379a000000000000000000000000000000000000000000000000000000000815260040161100f90614325565b60405180910390fd5b600560008373ffffffffffffffffffffffffffffffffffffffff1673ffffffffffffffffffffffffffffffffffffffff168152602001908152602001600020549050919050565b6110907f65d7a28e3265b37a6474929f336521b332c1681b933f6cb9f3376673440d862a61108b6116c9565b611108565b6110cf576040517f08c379a00000000000000000000000000000000000000000000000000000000081526004016110c690614385565b60405180910390fd5b6110d7611f82565b565b6000611100826001600086815260200190815260200160002061202590919063ffffffff16565b905092915050565b600080600084815260200190815260200160002060000160008373ffffffffffffffffffffffffffffffffffffffff1673ffffffffffffffffffffffffffffffffffffffff16815260200190815260200160002060009054906101000a900460ff16905092915050565b606060038054611181906146ea565b80601f01602080910402602001604051908101604052809291908181526020018280546111ad906146ea565b80156111fa5780601f106111cf576101008083540402835291602001916111fa565b820191906000526020600020905b8154815290600101906020018083116111dd57829003601f168201915b5050505050905090565b6000801b81565b6112136116c9565b73ffffffffffffffffffffffffffffffffffffffff168273ffffffffffffffffffffffffffffffffffffffff161415611281576040517f08c379a000000000000000000000000000000000000000000000000000000000815260040161127890614285565b60405180910390fd5b806007600061128e6116c9565b73ffffffffffffffffffffffffffffffffffffffff1673ffffffffffffffffffffffffffffffffffffffff16815260200190815260200160002060008473ffffffffffffffffffffffffffffffffffffffff1673ffffffffffffffffffffffffffffffffffffffff16815260200190815260200160002060006101000a81548160ff0219169083151502179055508173ffffffffffffffffffffffffffffffffffffffff1661133b6116c9565b73ffffffffffffffffffffffffffffffffffffffff167f17307eab39ab6107e8899845ad3d59bd9653f200f220920489ca2b5937696c318360405161138091906140ad565b60405180910390a35050565b61139d6113976116c9565b8361197c565b6113dc576040517f08c379a00000000000000000000000000000000000000000000000000000000081526004016113d390614425565b60405180910390fd5b6113e88484848461203f565b50505050565b60606113f98261165d565b611438576040517f08c379a000000000000000000000000000000000000000000000000000000000815260040161142f906143e5565b60405180910390fd5b600061144261209b565b90506000815111611462576040518060200160405280600081525061148d565b8061146c8461212d565b60405160200161147d92919061400d565b6040516020818303038152906040525b915050919050565b60006114b2600160008481526020019081526020016000206122da565b9050919050565b6114c382826122ef565b6114e88160016000858152602001908152602001600020611d9f90919063ffffffff16565b505050565b7f65d7a28e3265b37a6474929f336521b332c1681b933f6cb9f3376673440d862a81565b6000600760008473ffffffffffffffffffffffffffffffffffffffff1673ffffffffffffffffffffffffffffffffffffffff16815260200190815260200160002060008373ffffffffffffffffffffffffffffffffffffffff1673ffffffffffffffffffffffffffffffffffffffff16815260200190815260200160002060009054906101000a900460ff16905092915050565b6115af8282612355565b5050565b60006115db836000018373ffffffffffffffffffffffffffffffffffffffff1660001b612435565b905092915050565b60007f780e9d63000000000000000000000000000000000000000000000000000000007bffffffffffffffffffffffffffffffffffffffffffffffffffffffff1916827bffffffffffffffffffffffffffffffffffffffffffffffffffffffff191614806116565750611655826124a5565b5b9050919050565b60008073ffffffffffffffffffffffffffffffffffffffff166004600084815260200190815260200160002060009054906101000a900473ffffffffffffffffffffffffffffffffffffffff1673ffffffffffffffffffffffffffffffffffffffff1614159050919050565b600033905090565b816006600083815260200190815260200160002060006101000a81548173ffffffffffffffffffffffffffffffffffffffff021916908373ffffffffffffffffffffffffffffffffffffffff160217905550808273ffffffffffffffffffffffffffffffffffffffff1661174483610ef5565b73ffffffffffffffffffffffffffffffffffffffff167f8c5be1e5ebec7d5bd14f71427d1e84f3dd0314c0f7b2291e5b200ac8c7c3b92560405160405180910390a45050565b6001816000016000828254019250508190555050565b600081600001549050919050565b600073ffffffffffffffffffffffffffffffffffffffff168273ffffffffffffffffffffffffffffffffffffffff16141561181e576040517f08c379a000000000000000000000000000000000000000000000000000000000815260040161181590614365565b60405180910390fd5b6118278161165d565b15611867576040517f08c379a000000000000000000000000000000000000000000000000000000000815260040161185e90614225565b60405180910390fd5b61187360008383612587565b6001600560008473ffffffffffffffffffffffffffffffffffffffff1673ffffffffffffffffffffffffffffffffffffffff16815260200190815260200160002060008282546118c3919061456f565b92505081905550816004600083815260200190815260200160002060006101000a81548173ffffffffffffffffffffffffffffffffffffffff021916908373ffffffffffffffffffffffffffffffffffffffff160217905550808273ffffffffffffffffffffffffffffffffffffffff16600073ffffffffffffffffffffffffffffffffffffffff167fddf252ad1be2c89b69c2b068fc378daa952ba7f163c4a11628f55a4df523b3ef60405160405180910390a45050565b60006119878261165d565b6119c6576040517f08c379a00000000000000000000000000000000000000000000000000000000081526004016119bd906142a5565b60405180910390fd5b60006119d183610ef5565b90508073ffffffffffffffffffffffffffffffffffffffff168473ffffffffffffffffffffffffffffffffffffffff161480611a4057508373ffffffffffffffffffffffffffffffffffffffff16611a2884610833565b73ffffffffffffffffffffffffffffffffffffffff16145b80611a515750611a508185611511565b5b91505092915050565b8273ffffffffffffffffffffffffffffffffffffffff16611a7a82610ef5565b73ffffffffffffffffffffffffffffffffffffffff1614611ad0576040517f08c379a0000000000000000000000000000000000000000000000000000000008152600401611ac7906143c5565b60405180910390fd5b600073ffffffffffffffffffffffffffffffffffffffff168273ffffffffffffffffffffffffffffffffffffffff161415611b40576040517f08c379a0000000000000000000000000000000000000000000000000000000008152600401611b3790614265565b60405180910390fd5b611b4b838383612587565b611b566000826116d1565b6001600560008573ffffffffffffffffffffffffffffffffffffffff1673ffffffffffffffffffffffffffffffffffffffff1681526020019081526020016000206000828254611ba691906145f6565b925050819055506001600560008473ffffffffffffffffffffffffffffffffffffffff1673ffffffffffffffffffffffffffffffffffffffff1681526020019081526020016000206000828254611bfd919061456f565b92505081905550816004600083815260200190815260200160002060006101000a81548173ffffffffffffffffffffffffffffffffffffffff021916908373ffffffffffffffffffffffffffffffffffffffff160217905550808273ffffffffffffffffffffffffffffffffffffffff168473ffffffffffffffffffffffffffffffffffffffff167fddf252ad1be2c89b69c2b068fc378daa952ba7f163c4a11628f55a4df523b3ef60405160405180910390a4505050565b611ccf611cc283610b16565b611cca6116c9565b611108565b611d0e576040517f08c379a0000000000000000000000000000000000000000000000000000000008152600401611d0590614145565b60405180910390fd5b611d188282612355565b5050565b611d246116c9565b73ffffffffffffffffffffffffffffffffffffffff168173ffffffffffffffffffffffffffffffffffffffff1614611d91576040517f08c379a0000000000000000000000000000000000000000000000000000000008152600401611d8890614485565b60405180910390fd5b611d9b8282612597565b5050565b6000611dc7836000018373ffffffffffffffffffffffffffffffffffffffff1660001b612678565b905092915050565b611dd7610ede565b611e16576040517f08c379a0000000000000000000000000000000000000000000000000000000008152600401611e0d90614165565b60405180910390fd5b6000600c60006101000a81548160ff0219169083151502179055507f5db9ee0a495bf2e6ff9c91a7834c1ba4fdd244a5e8aa4e537bd38aeae4b073aa611e5a6116c9565b604051611e679190614046565b60405180910390a1565b6000611e7c82610ef5565b9050611e8a81600084612587565b611e956000836116d1565b6001600560008373ffffffffffffffffffffffffffffffffffffffff1673ffffffffffffffffffffffffffffffffffffffff1681526020019081526020016000206000828254611ee591906145f6565b925050819055506004600083815260200190815260200160002060006101000a81549073ffffffffffffffffffffffffffffffffffffffff021916905581600073ffffffffffffffffffffffffffffffffffffffff168273ffffffffffffffffffffffffffffffffffffffff167fddf252ad1be2c89b69c2b068fc378daa952ba7f163c4a11628f55a4df523b3ef60405160405180910390a45050565b611f8a610ede565b15611fca576040517f08c379a0000000000000000000000000000000000000000000000000000000008152600401611fc1906142e5565b60405180910390fd5b6001600c60006101000a81548160ff0219169083151502179055507f62e78cea01bee320cd4e420270b5ea74000d11b0c9f74754ebdbfc544b05a25861200e6116c9565b60405161201b9190614046565b60405180910390a1565b60006120348360000183612802565b60001c905092915050565b61204a848484611a5a565b6120568484848461289c565b612095576040517f08c379a000000000000000000000000000000000000000000000000000000000815260040161208c90614205565b60405180910390fd5b50505050565b6060600e80546120aa906146ea565b80601f01602080910402602001604051908101604052809291908181526020018280546120d6906146ea565b80156121235780601f106120f857610100808354040283529160200191612123565b820191906000526020600020905b81548152906001019060200180831161210657829003601f168201915b5050505050905090565b60606000821415612175576040518060400160405280600181526020017f300000000000000000000000000000000000000000000000000000000000000081525090506122d5565b600082905060005b600082146121a75780806121909061471c565b915050600a826121a091906145c5565b915061217d565b60008167ffffffffffffffff8111156121e9577f4e487b7100000000000000000000000000000000000000000000000000000000600052604160045260246000fd5b6040519080825280601f01601f19166020018201604052801561221b5781602001600182028036833780820191505090505b5090505b600085146122ce5760018261223491906145f6565b9150600a856122439190614765565b603061224f919061456f565b60f81b81838151811061228b577f4e487b7100000000000000000000000000000000000000000000000000000000600052603260045260246000fd5b60200101907effffffffffffffffffffffffffffffffffffffffffffffffffffffffffffff1916908160001a905350600a856122c791906145c5565b945061221f565b8093505050505b919050565b60006122e882600001612a33565b9050919050565b6123086122fb83610b16565b6123036116c9565b611108565b612347576040517f08c379a000000000000000000000000000000000000000000000000000000000815260040161233e906142c5565b60405180910390fd5b6123518282612597565b5050565b61235f8282611108565b61243157600160008084815260200190815260200160002060000160008373ffffffffffffffffffffffffffffffffffffffff1673ffffffffffffffffffffffffffffffffffffffff16815260200190815260200160002060006101000a81548160ff0219169083151502179055506123d66116c9565b73ffffffffffffffffffffffffffffffffffffffff168173ffffffffffffffffffffffffffffffffffffffff16837f2f8788117e7eff1d82e926ec794901d17c78024a50270940304540a733656f0d60405160405180910390a45b5050565b60006124418383612a44565b61249a57826000018290806001815401808255809150506001900390600052602060002001600090919091909150558260000180549050836001016000848152602001908152602001600020819055506001905061249f565b600090505b92915050565b60007f80ac58cd000000000000000000000000000000000000000000000000000000007bffffffffffffffffffffffffffffffffffffffffffffffffffffffff1916827bffffffffffffffffffffffffffffffffffffffffffffffffffffffff1916148061257057507f5b5e139f000000000000000000000000000000000000000000000000000000007bffffffffffffffffffffffffffffffffffffffffffffffffffffffff1916827bffffffffffffffffffffffffffffffffffffffffffffffffffffffff1916145b80612580575061257f82612a67565b5b9050919050565b612592838383612ae1565b505050565b6125a18282611108565b1561267457600080600084815260200190815260200160002060000160008373ffffffffffffffffffffffffffffffffffffffff1673ffffffffffffffffffffffffffffffffffffffff16815260200190815260200160002060006101000a81548160ff0219169083151502179055506126196116c9565b73ffffffffffffffffffffffffffffffffffffffff168173ffffffffffffffffffffffffffffffffffffffff16837ff6391f5c32d9c69d2a47ea670b442974b53935d1edc7fd64eb21e047a839171b60405160405180910390a45b5050565b600080836001016000848152602001908152602001600020549050600081146127f65760006001826126aa91906145f6565b90506000600186600001805490506126c291906145f6565b90506000866000018281548110612702577f4e487b7100000000000000000000000000000000000000000000000000000000600052603260045260246000fd5b906000526020600020015490508087600001848154811061274c577f4e487b7100000000000000000000000000000000000000000000000000000000600052603260045260246000fd5b9060005260206000200181905550600183612767919061456f565b87600101600083815260200190815260200160002081905550866000018054806127ba577f4e487b7100000000000000000000000000000000000000000000000000000000600052603160045260246000fd5b600190038181906000526020600020016000905590558660010160008781526020019081526020016000206000905560019450505050506127fc565b60009150505b92915050565b60008183600001805490501161284d576040517f08c379a000000000000000000000000000000000000000000000000000000000815260040161284490614105565b60405180910390fd5b826000018281548110612889577f4e487b7100000000000000000000000000000000000000000000000000000000600052603260045260246000fd5b9060005260206000200154905092915050565b60006128bd8473ffffffffffffffffffffffffffffffffffffffff16612b39565b15612a26578373ffffffffffffffffffffffffffffffffffffffff1663150b7a026128e66116c9565b8786866040518563ffffffff1660e01b81526004016129089493929190614061565b602060405180830381600087803b15801561292257600080fd5b505af192505050801561295357506040513d601f19601f820116820180604052508101906129509190613418565b60015b6129d6573d8060008114612983576040519150601f19603f3d011682016040523d82523d6000602084013e612988565b606091505b506000815114156129ce576040517f08c379a00000000000000000000000000000000000000000000000000000000081526004016129c590614205565b60405180910390fd5b805181602001fd5b63150b7a0260e01b7bffffffffffffffffffffffffffffffffffffffffffffffffffffffff1916817bffffffffffffffffffffffffffffffffffffffffffffffffffffffff191614915050612a2b565b600190505b949350505050565b600081600001805490509050919050565b600080836001016000848152602001908152602001600020541415905092915050565b60007f5a05180f000000000000000000000000000000000000000000000000000000007bffffffffffffffffffffffffffffffffffffffffffffffffffffffff1916827bffffffffffffffffffffffffffffffffffffffffffffffffffffffff19161480612ada5750612ad982612b4c565b5b9050919050565b612aec838383612bc6565b612af4610ede565b15612b34576040517f08c379a0000000000000000000000000000000000000000000000000000000008152600401612b2b90614125565b60405180910390fd5b505050565b600080823b905060008111915050919050565b60007f7965db0b000000000000000000000000000000000000000000000000000000007bffffffffffffffffffffffffffffffffffffffffffffffffffffffff1916827bffffffffffffffffffffffffffffffffffffffffffffffffffffffff19161480612bbf5750612bbe82612cda565b5b9050919050565b612bd1838383612d44565b600073ffffffffffffffffffffffffffffffffffffffff168373ffffffffffffffffffffffffffffffffffffffff161415612c1457612c0f81612d49565b612c53565b8173ffffffffffffffffffffffffffffffffffffffff168373ffffffffffffffffffffffffffffffffffffffff1614612c5257612c518382612d92565b5b5b600073ffffffffffffffffffffffffffffffffffffffff168273ffffffffffffffffffffffffffffffffffffffff161415612c9657612c9181612eff565b612cd5565b8273ffffffffffffffffffffffffffffffffffffffff168273ffffffffffffffffffffffffffffffffffffffff1614612cd457612cd38282613042565b5b5b505050565b60007f01ffc9a7000000000000000000000000000000000000000000000000000000007bffffffffffffffffffffffffffffffffffffffffffffffffffffffff1916827bffffffffffffffffffffffffffffffffffffffffffffffffffffffff1916149050919050565b505050565b600a80549050600b600083815260200190815260200160002081905550600a81908060018154018082558091505060019003906000526020600020016000909190919091505550565b60006001612d9f84610fa7565b612da991906145f6565b9050600060096000848152602001908152602001600020549050818114612e8e576000600860008673ffffffffffffffffffffffffffffffffffffffff1673ffffffffffffffffffffffffffffffffffffffff168152602001908152602001600020600084815260200190815260200160002054905080600860008773ffffffffffffffffffffffffffffffffffffffff1673ffffffffffffffffffffffffffffffffffffffff168152602001908152602001600020600084815260200190815260200160002081905550816009600083815260200190815260200160002081905550505b6009600084815260200190815260200160002060009055600860008573ffffffffffffffffffffffffffffffffffffffff1673ffffffffffffffffffffffffffffffffffffffff16815260200190815260200160002060008381526020019081526020016000206000905550505050565b60006001600a80549050612f1391906145f6565b90506000600b60008481526020019081526020016000205490506000600a8381548110612f69577f4e487b7100000000000000000000000000000000000000000000000000000000600052603260045260246000fd5b9060005260206000200154905080600a8381548110612fb1577f4e487b7100000000000000000000000000000000000000000000000000000000600052603260045260246000fd5b906000526020600020018190555081600b600083815260200190815260200160002081905550600b600085815260200190815260200160002060009055600a805480613026577f4e487b7100000000000000000000000000000000000000000000000000000000600052603160045260246000fd5b6001900381819060005260206000200160009055905550505050565b600061304d83610fa7565b905081600860008573ffffffffffffffffffffffffffffffffffffffff1673ffffffffffffffffffffffffffffffffffffffff168152602001908152602001600020600083815260200190815260200160002081905550806009600084815260200190815260200160002081905550505050565b60006130d46130cf846144f1565b6144c0565b9050828152602081018484840111156130ec57600080fd5b6130f78482856146a8565b509392505050565b60008135905061310e81614863565b92915050565b6000813590506131238161487a565b92915050565b60008135905061313881614891565b92915050565b60008135905061314d816148a8565b92915050565b600081519050613162816148a8565b92915050565b600082601f83011261317957600080fd5b81356131898482602086016130c1565b91505092915050565b6000813590506131a1816148bf565b92915050565b6000602082840312156131b957600080fd5b60006131c7848285016130ff565b91505092915050565b600080604083850312156131e357600080fd5b60006131f1858286016130ff565b9250506020613202858286016130ff565b9150509250929050565b60008060006060848603121561322157600080fd5b600061322f868287016130ff565b9350506020613240868287016130ff565b925050604061325186828701613192565b9150509250925092565b6000806000806080858703121561327157600080fd5b600061327f878288016130ff565b9450506020613290878288016130ff565b93505060406132a187828801613192565b925050606085013567ffffffffffffffff8111156132be57600080fd5b6132ca87828801613168565b91505092959194509250565b600080604083850312156132e957600080fd5b60006132f7858286016130ff565b925050602061330885828601613114565b9150509250929050565b6000806040838503121561332557600080fd5b6000613333858286016130ff565b925050602061334485828601613192565b9150509250929050565b60006020828403121561336057600080fd5b600061336e84828501613129565b91505092915050565b6000806040838503121561338a57600080fd5b600061339885828601613129565b92505060206133a9858286016130ff565b9150509250929050565b600080604083850312156133c657600080fd5b60006133d485828601613129565b92505060206133e585828601613192565b9150509250929050565b60006020828403121561340157600080fd5b600061340f8482850161313e565b91505092915050565b60006020828403121561342a57600080fd5b600061343884828501613153565b91505092915050565b60006020828403121561345357600080fd5b600061346184828501613192565b91505092915050565b6134738161462a565b82525050565b6134828161463c565b82525050565b61349181614648565b82525050565b60006134a282614521565b6134ac8185614537565b93506134bc8185602086016146b7565b6134c581614852565b840191505092915050565b60006134db8261452c565b6134e58185614553565b93506134f58185602086016146b7565b6134fe81614852565b840191505092915050565b60006135148261452c565b61351e8185614564565b935061352e8185602086016146b7565b80840191505092915050565b6000613547602283614553565b91507f456e756d657261626c655365743a20696e646578206f7574206f6620626f756e60008301527f64730000000000000000000000000000000000000000000000000000000000006020830152604082019050919050565b60006135ad602b83614553565b91507f4552433732315061757361626c653a20746f6b656e207472616e73666572207760008301527f68696c65207061757365640000000000000000000000000000000000000000006020830152604082019050919050565b6000613613602f83614553565b91507f416363657373436f6e74726f6c3a2073656e646572206d75737420626520616e60008301527f2061646d696e20746f206772616e7400000000000000000000000000000000006020830152604082019050919050565b6000613679601483614553565b91507f5061757361626c653a206e6f74207061757365640000000000000000000000006000830152602082019050919050565b60006136b9602783614553565b91507f546f6b656e3a206d75737420686176652061646d696e20726f6c6520746f207760008301527f69746864726177000000000000000000000000000000000000000000000000006020830152604082019050919050565b600061371f602783614553565b91507f546f6b656e3a206d75737420686176652070617573657220726f6c6520746f2060008301527f756e7061757365000000000000000000000000000000000000000000000000006020830152604082019050919050565b6000613785602a83614553565b91507f546f6b656e3a20416d6f756e74206f662045746865722073656e74206973206e60008301527f6f7420636f7272656374000000000000000000000000000000000000000000006020830152604082019050919050565b60006137eb602b83614553565b91507f455243373231456e756d657261626c653a206f776e657220696e646578206f7560008301527f74206f6620626f756e64730000000000000000000000000000000000000000006020830152604082019050919050565b6000613851603283614553565b91507f4552433732313a207472616e7366657220746f206e6f6e20455243373231526560008301527f63656976657220696d706c656d656e74657200000000000000000000000000006020830152604082019050919050565b60006138b7601c83614553565b91507f4552433732313a20746f6b656e20616c7265616479206d696e746564000000006000830152602082019050919050565b60006138f7601483614553565b91507f4661696c656420746f2073656e642045746865720000000000000000000000006000830152602082019050919050565b6000613937602483614553565b91507f4552433732313a207472616e7366657220746f20746865207a65726f2061646460008301527f72657373000000000000000000000000000000000000000000000000000000006020830152604082019050919050565b600061399d601983614553565b91507f4552433732313a20617070726f766520746f2063616c6c6572000000000000006000830152602082019050919050565b60006139dd602c83614553565b91507f4552433732313a206f70657261746f7220717565727920666f72206e6f6e657860008301527f697374656e7420746f6b656e00000000000000000000000000000000000000006020830152604082019050919050565b6000613a43603083614553565b91507f416363657373436f6e74726f6c3a2073656e646572206d75737420626520616e60008301527f2061646d696e20746f207265766f6b65000000000000000000000000000000006020830152604082019050919050565b6000613aa9601083614553565b91507f5061757361626c653a20706175736564000000000000000000000000000000006000830152602082019050919050565b6000613ae9603883614553565b91507f4552433732313a20617070726f76652063616c6c6572206973206e6f74206f7760008301527f6e6572206e6f7220617070726f76656420666f7220616c6c00000000000000006020830152604082019050919050565b6000613b4f602a83614553565b91507f4552433732313a2062616c616e636520717565727920666f7220746865207a6560008301527f726f2061646472657373000000000000000000000000000000000000000000006020830152604082019050919050565b6000613bb5602983614553565b91507f4552433732313a206f776e657220717565727920666f72206e6f6e657869737460008301527f656e7420746f6b656e00000000000000000000000000000000000000000000006020830152604082019050919050565b6000613c1b602083614553565b91507f4552433732313a206d696e7420746f20746865207a65726f20616464726573736000830152602082019050919050565b6000613c5b602583614553565b91507f546f6b656e3a206d75737420686176652070617573657220726f6c6520746f2060008301527f70617573650000000000000000000000000000000000000000000000000000006020830152604082019050919050565b6000613cc1602c83614553565b91507f4552433732313a20617070726f76656420717565727920666f72206e6f6e657860008301527f697374656e7420746f6b656e00000000000000000000000000000000000000006020830152604082019050919050565b6000613d27602983614553565b91507f4552433732313a207472616e73666572206f6620746f6b656e2074686174206960008301527f73206e6f74206f776e00000000000000000000000000000000000000000000006020830152604082019050919050565b6000613d8d602f83614553565b91507f4552433732314d657461646174613a2055524920717565727920666f72206e6f60008301527f6e6578697374656e7420746f6b656e00000000000000000000000000000000006020830152604082019050919050565b6000613df3602183614553565b91507f4552433732313a20617070726f76616c20746f2063757272656e74206f776e6560008301527f72000000000000000000000000000000000000000000000000000000000000006020830152604082019050919050565b6000613e59600083614548565b9150600082019050919050565b6000613e73603183614553565b91507f4552433732313a207472616e736665722063616c6c6572206973206e6f74206f60008301527f776e6572206e6f7220617070726f7665640000000000000000000000000000006020830152604082019050919050565b6000613ed9602c83614553565b91507f455243373231456e756d657261626c653a20676c6f62616c20696e646578206f60008301527f7574206f6620626f756e647300000000000000000000000000000000000000006020830152604082019050919050565b6000613f3f603083614553565b91507f4552433732314275726e61626c653a2063616c6c6572206973206e6f74206f7760008301527f6e6572206e6f7220617070726f766564000000000000000000000000000000006020830152604082019050919050565b6000613fa5602f83614553565b91507f416363657373436f6e74726f6c3a2063616e206f6e6c792072656e6f756e636560008301527f20726f6c657320666f722073656c6600000000000000000000000000000000006020830152604082019050919050565b6140078161469e565b82525050565b60006140198285613509565b91506140258284613509565b91508190509392505050565b600061403c82613e4c565b9150819050919050565b600060208201905061405b600083018461346a565b92915050565b6000608082019050614076600083018761346a565b614083602083018661346a565b6140906040830185613ffe565b81810360608301526140a28184613497565b905095945050505050565b60006020820190506140c26000830184613479565b92915050565b60006020820190506140dd6000830184613488565b92915050565b600060208201905081810360008301526140fd81846134d0565b905092915050565b6000602082019050818103600083015261411e8161353a565b9050919050565b6000602082019050818103600083015261413e816135a0565b9050919050565b6000602082019050818103600083015261415e81613606565b9050919050565b6000602082019050818103600083015261417e8161366c565b9050919050565b6000602082019050818103600083015261419e816136ac565b9050919050565b600060208201905081810360008301526141be81613712565b9050919050565b600060208201905081810360008301526141de81613778565b9050919050565b600060208201905081810360008301526141fe816137de565b9050919050565b6000602082019050818103600083015261421e81613844565b9050919050565b6000602082019050818103600083015261423e816138aa565b9050919050565b6000602082019050818103600083015261425e816138ea565b9050919050565b6000602082019050818103600083015261427e8161392a565b9050919050565b6000602082019050818103600083015261429e81613990565b9050919050565b600060208201905081810360008301526142be816139d0565b9050919050565b600060208201905081810360008301526142de81613a36565b9050919050565b600060208201905081810360008301526142fe81613a9c565b9050919050565b6000602082019050818103600083015261431e81613adc565b9050919050565b6000602082019050818103600083015261433e81613b42565b9050919050565b6000602082019050818103600083015261435e81613ba8565b9050919050565b6000602082019050818103600083015261437e81613c0e565b9050919050565b6000602082019050818103600083015261439e81613c4e565b9050919050565b600060208201905081810360008301526143be81613cb4565b9050919050565b600060208201905081810360008301526143de81613d1a565b9050919050565b600060208201905081810360008301526143fe81613d80565b9050919050565b6000602082019050818103600083015261441e81613de6565b9050919050565b6000602082019050818103600083015261443e81613e66565b9050919050565b6000602082019050818103600083015261445e81613ecc565b9050919050565b6000602082019050818103600083015261447e81613f32565b9050919050565b6000602082019050818103600083015261449e81613f98565b9050919050565b60006020820190506144ba6000830184613ffe565b92915050565b6000604051905081810181811067ffffffffffffffff821117156144e7576144e6614823565b5b8060405250919050565b600067ffffffffffffffff82111561450c5761450b614823565b5b601f19601f8301169050602081019050919050565b600081519050919050565b600081519050919050565b600082825260208201905092915050565b600081905092915050565b600082825260208201905092915050565b600081905092915050565b600061457a8261469e565b91506145858361469e565b9250827fffffffffffffffffffffffffffffffffffffffffffffffffffffffffffffffff038211156145ba576145b9614796565b5b828201905092915050565b60006145d08261469e565b91506145db8361469e565b9250826145eb576145ea6147c5565b5b828204905092915050565b60006146018261469e565b915061460c8361469e565b92508282101561461f5761461e614796565b5b828203905092915050565b60006146358261467e565b9050919050565b60008115159050919050565b6000819050919050565b60007fffffffff0000000000000000000000000000000000000000000000000000000082169050919050565b600073ffffffffffffffffffffffffffffffffffffffff82169050919050565b6000819050919050565b82818337600083830152505050565b60005b838110156146d55780820151818401526020810190506146ba565b838111156146e4576000848401525b50505050565b6000600282049050600182168061470257607f821691505b60208210811415614716576147156147f4565b5b50919050565b60006147278261469e565b91507fffffffffffffffffffffffffffffffffffffffffffffffffffffffffffffffff82141561475a57614759614796565b5b600182019050919050565b60006147708261469e565b915061477b8361469e565b92508261478b5761478a6147c5565b5b828206905092915050565b7f4e487b7100000000000000000000000000000000000000000000000000000000600052601160045260246000fd5b7f4e487b7100000000000000000000000000000000000000000000000000000000600052601260045260246000fd5b7f4e487b7100000000000000000000000000000000000000000000000000000000600052602260045260246000fd5b7f4e487b7100000000000000000000000000000000000000000000000000000000600052604160045260246000fd5b6000601f19601f8301169050919050565b61486c8161462a565b811461487757600080fd5b50565b6148838161463c565b811461488e57600080fd5b50565b61489a81614648565b81146148a557600080fd5b50565b6148b181614652565b81146148bc57600080fd5b50565b6148c88161469e565b81146148d357600080fd5b5056fea26469706673582212204e73509f509618bd96f61fdc53581ba665972f6ca4433e2b596fdd0f39dfa9a664736f6c63430008000033",
  "linkReferences": {},
  "deployedLinkReferences": {},
  "address": "0xe70B30792c1832612c81059bcfFb1E4Ccf4A8aA3"
}